{
	"Magic20.sol": {
		"Magic20": {
			"abi": [
				{
					"inputs": [],
					"stateMutability": "nonpayable",
					"type": "constructor"
				},
				{
					"anonymous": false,
					"inputs": [
						{
							"indexed": true,
							"internalType": "address",
							"name": "previousOwner",
							"type": "address"
						},
						{
							"indexed": true,
							"internalType": "address",
							"name": "newOwner",
							"type": "address"
						}
					],
					"name": "OwnershipTransferred",
					"type": "event"
				},
				{
					"inputs": [
						{
							"internalType": "address",
							"name": "_holder",
							"type": "address"
						}
					],
					"name": "checkBalance",
					"outputs": [
						{
							"internalType": "uint256",
							"name": "",
							"type": "uint256"
						}
					],
					"stateMutability": "view",
					"type": "function"
				},
				{
					"inputs": [],
					"name": "magicAddress",
					"outputs": [
						{
							"internalType": "address",
							"name": "",
							"type": "address"
						}
					],
					"stateMutability": "view",
					"type": "function"
				},
				{
					"inputs": [],
					"name": "mainAddress",
					"outputs": [
						{
							"internalType": "address",
							"name": "",
							"type": "address"
						}
					],
					"stateMutability": "view",
					"type": "function"
				},
				{
					"inputs": [],
					"name": "owner",
					"outputs": [
						{
							"internalType": "address",
							"name": "",
							"type": "address"
						}
					],
					"stateMutability": "view",
					"type": "function"
				},
				{
					"inputs": [],
					"name": "renounceOwnership",
					"outputs": [],
					"stateMutability": "nonpayable",
					"type": "function"
				},
				{
					"inputs": [
						{
							"internalType": "address",
							"name": "_holder",
							"type": "address"
						},
						{
							"internalType": "uint256",
							"name": "_value",
							"type": "uint256"
						}
					],
					"name": "safeMagicTransfer",
					"outputs": [],
					"stateMutability": "payable",
					"type": "function"
				},
				{
					"inputs": [
						{
							"internalType": "address",
							"name": "_magicAddress",
							"type": "address"
						}
					],
					"name": "setMagicAddress",
					"outputs": [],
					"stateMutability": "nonpayable",
					"type": "function"
				},
				{
					"inputs": [
						{
							"internalType": "address",
							"name": "newOwner",
							"type": "address"
						}
					],
					"name": "transferOwnership",
					"outputs": [],
					"stateMutability": "nonpayable",
					"type": "function"
				}
			],
			"devdoc": {
				"kind": "dev",
				"methods": {
					"owner()": {
						"details": "Returns the address of the current owner."
					},
					"renounceOwnership()": {
						"details": "Leaves the contract without owner. It will not be possible to call `onlyOwner` functions anymore. Can only be called by the current owner. NOTE: Renouncing ownership will leave the contract without an owner, thereby removing any functionality that is only available to the owner."
					},
					"transferOwnership(address)": {
						"details": "Transfers ownership of the contract to a new account (`newOwner`). Can only be called by the current owner."
					}
				},
				"version": 1
			},
			"evm": {
				"assembly": "    /* \"Magic20.sol\":3556:5020  contract Magic20 is Ownable {... */\n  mstore(0x40, 0x80)\n    /* \"Magic20.sol\":3779:3835  constructor() {... */\n  callvalue\n  dup1\n  iszero\n  tag_1\n  jumpi\n  0x00\n  dup1\n  revert\ntag_1:\n  pop\n    /* \"@openzeppelin/contracts/access/Ownable.sol\":921:953  _transferOwnership(_msgSender()) */\n  tag_5\n    /* \"@openzeppelin/contracts/access/Ownable.sol\":940:952  _msgSender() */\n  tag_6\n    /* \"@openzeppelin/contracts/access/Ownable.sol\":940:950  _msgSender */\n  shl(0x20, tag_7)\n    /* \"@openzeppelin/contracts/access/Ownable.sol\":940:952  _msgSender() */\n  0x20\n  shr\n  jump\t// in\ntag_6:\n    /* \"@openzeppelin/contracts/access/Ownable.sol\":921:939  _transferOwnership */\n  shl(0x20, tag_8)\n    /* \"@openzeppelin/contracts/access/Ownable.sol\":921:953  _transferOwnership(_msgSender()) */\n  0x20\n  shr\n  jump\t// in\ntag_5:\n    /* \"Magic20.sol\":3556:5020  contract Magic20 is Ownable {... */\n  jump(tag_10)\n    /* \"@openzeppelin/contracts/utils/Context.sol\":640:736  function _msgSender() internal view virtual returns (address) {... */\ntag_7:\n    /* \"@openzeppelin/contracts/utils/Context.sol\":693:700  address */\n  0x00\n    /* \"@openzeppelin/contracts/utils/Context.sol\":719:729  msg.sender */\n  caller\n    /* \"@openzeppelin/contracts/utils/Context.sol\":712:729  return msg.sender */\n  swap1\n  pop\n    /* \"@openzeppelin/contracts/utils/Context.sol\":640:736  function _msgSender() internal view virtual returns (address) {... */\n  swap1\n  jump\t// out\n    /* \"@openzeppelin/contracts/access/Ownable.sol\":2270:2457  function _transferOwnership(address newOwner) internal virtual {... */\ntag_8:\n    /* \"@openzeppelin/contracts/access/Ownable.sol\":2343:2359  address oldOwner */\n  0x00\n    /* \"@openzeppelin/contracts/access/Ownable.sol\":2362:2368  _owner */\n  dup1\n  0x00\n  swap1\n  sload\n  swap1\n  0x0100\n  exp\n  swap1\n  div\n  0xffffffffffffffffffffffffffffffffffffffff\n  and\n    /* \"@openzeppelin/contracts/access/Ownable.sol\":2343:2368  address oldOwner = _owner */\n  swap1\n  pop\n    /* \"@openzeppelin/contracts/access/Ownable.sol\":2387:2395  newOwner */\n  dup2\n    /* \"@openzeppelin/contracts/access/Ownable.sol\":2378:2384  _owner */\n  0x00\n  dup1\n    /* \"@openzeppelin/contracts/access/Ownable.sol\":2378:2395  _owner = newOwner */\n  0x0100\n  exp\n  dup2\n  sload\n  dup2\n  0xffffffffffffffffffffffffffffffffffffffff\n  mul\n  not\n  and\n  swap1\n  dup4\n  0xffffffffffffffffffffffffffffffffffffffff\n  and\n  mul\n  or\n  swap1\n  sstore\n  pop\n    /* \"@openzeppelin/contracts/access/Ownable.sol\":2441:2449  newOwner */\n  dup2\n    /* \"@openzeppelin/contracts/access/Ownable.sol\":2410:2450  OwnershipTransferred(oldOwner, newOwner) */\n  0xffffffffffffffffffffffffffffffffffffffff\n  and\n    /* \"@openzeppelin/contracts/access/Ownable.sol\":2431:2439  oldOwner */\n  dup2\n    /* \"@openzeppelin/contracts/access/Ownable.sol\":2410:2450  OwnershipTransferred(oldOwner, newOwner) */\n  0xffffffffffffffffffffffffffffffffffffffff\n  and\n  0x8be0079c531659141344cd1fd0a4f28419497f9722a3daafe3b4186f6b6457e0\n  mload(0x40)\n  mload(0x40)\n  dup1\n  swap2\n  sub\n  swap1\n  log3\n    /* \"@openzeppelin/contracts/access/Ownable.sol\":2333:2457  {... */\n  pop\n    /* \"@openzeppelin/contracts/access/Ownable.sol\":2270:2457  function _transferOwnership(address newOwner) internal virtual {... */\n  pop\n  jump\t// out\n    /* \"Magic20.sol\":3556:5020  contract Magic20 is Ownable {... */\ntag_10:\n  dataSize(sub_0)\n  dup1\n  dataOffset(sub_0)\n  0x00\n  codecopy\n  0x00\n  return\nstop\n\nsub_0: assembly {\n        /* \"Magic20.sol\":3556:5020  contract Magic20 is Ownable {... */\n      mstore(0x40, 0x80)\n      jumpi(tag_1, lt(calldatasize, 0x04))\n      shr(0xe0, calldataload(0x00))\n      dup1\n      0x715018a6\n      gt\n      tag_10\n      jumpi\n      dup1\n      0x715018a6\n      eq\n      tag_6\n      jumpi\n      dup1\n      0x8da5cb5b\n      eq\n      tag_7\n      jumpi\n      dup1\n      0xc17846dc\n      eq\n      tag_8\n      jumpi\n      dup1\n      0xf2fde38b\n      eq\n      tag_9\n      jumpi\n      jump(tag_1)\n    tag_10:\n      dup1\n      0x0cdd4234\n      eq\n      tag_2\n      jumpi\n      dup1\n      0x1591b66c\n      eq\n      tag_3\n      jumpi\n      dup1\n      0x4a7d2eaa\n      eq\n      tag_4\n      jumpi\n      dup1\n      0x5f515226\n      eq\n      tag_5\n      jumpi\n    tag_1:\n      0x00\n      dup1\n      revert\n        /* \"Magic20.sol\":3715:3741  address public mainAddress */\n    tag_2:\n      callvalue\n      dup1\n      iszero\n      tag_11\n      jumpi\n      0x00\n      dup1\n      revert\n    tag_11:\n      pop\n      tag_12\n      tag_13\n      jump\t// in\n    tag_12:\n      mload(0x40)\n      tag_14\n      swap2\n      swap1\n      tag_15\n      jump\t// in\n    tag_14:\n      mload(0x40)\n      dup1\n      swap2\n      sub\n      swap1\n      return\n        /* \"Magic20.sol\":3657:3684  address public magicAddress */\n    tag_3:\n      callvalue\n      dup1\n      iszero\n      tag_16\n      jumpi\n      0x00\n      dup1\n      revert\n    tag_16:\n      pop\n      tag_17\n      tag_18\n      jump\t// in\n    tag_17:\n      mload(0x40)\n      tag_19\n      swap2\n      swap1\n      tag_15\n      jump\t// in\n    tag_19:\n      mload(0x40)\n      dup1\n      swap2\n      sub\n      swap1\n      return\n        /* \"Magic20.sol\":4474:4666  function safeMagicTransfer(address _holder, uint256 _value) public payable {... */\n    tag_4:\n      tag_20\n      0x04\n      dup1\n      calldatasize\n      sub\n      dup2\n      add\n      swap1\n      tag_21\n      swap2\n      swap1\n      tag_22\n      jump\t// in\n    tag_21:\n      tag_23\n      jump\t// in\n    tag_20:\n      stop\n        /* \"Magic20.sol\":4085:4250  function checkBalance(address _holder) public view returns (uint256) {... */\n    tag_5:\n      callvalue\n      dup1\n      iszero\n      tag_24\n      jumpi\n      0x00\n      dup1\n      revert\n    tag_24:\n      pop\n      tag_25\n      0x04\n      dup1\n      calldatasize\n      sub\n      dup2\n      add\n      swap1\n      tag_26\n      swap2\n      swap1\n      tag_27\n      jump\t// in\n    tag_26:\n      tag_28\n      jump\t// in\n    tag_25:\n      mload(0x40)\n      tag_29\n      swap2\n      swap1\n      tag_30\n      jump\t// in\n    tag_29:\n      mload(0x40)\n      dup1\n      swap2\n      sub\n      swap1\n      return\n        /* \"@openzeppelin/contracts/access/Ownable.sol\":1668:1769  function renounceOwnership() public virtual onlyOwner {... */\n    tag_6:\n      callvalue\n      dup1\n      iszero\n      tag_31\n      jumpi\n      0x00\n      dup1\n      revert\n    tag_31:\n      pop\n      tag_32\n      tag_33\n      jump\t// in\n    tag_32:\n      stop\n        /* \"@openzeppelin/contracts/access/Ownable.sol\":1036:1121  function owner() public view virtual returns (address) {... */\n    tag_7:\n      callvalue\n      dup1\n      iszero\n      tag_34\n      jumpi\n      0x00\n      dup1\n      revert\n    tag_34:\n      pop\n      tag_35\n      tag_36\n      jump\t// in\n    tag_35:\n      mload(0x40)\n      tag_37\n      swap2\n      swap1\n      tag_15\n      jump\t// in\n    tag_37:\n      mload(0x40)\n      dup1\n      swap2\n      sub\n      swap1\n      return\n        /* \"Magic20.sol\":4903:5017  function setMagicAddress(address _magicAddress) external onlyOwner {... */\n    tag_8:\n      callvalue\n      dup1\n      iszero\n      tag_38\n      jumpi\n      0x00\n      dup1\n      revert\n    tag_38:\n      pop\n      tag_39\n      0x04\n      dup1\n      calldatasize\n      sub\n      dup2\n      add\n      swap1\n      tag_40\n      swap2\n      swap1\n      tag_27\n      jump\t// in\n    tag_40:\n      tag_41\n      jump\t// in\n    tag_39:\n      stop\n        /* \"@openzeppelin/contracts/access/Ownable.sol\":1918:2116  function transferOwnership(address newOwner) public virtual onlyOwner {... */\n    tag_9:\n      callvalue\n      dup1\n      iszero\n      tag_42\n      jumpi\n      0x00\n      dup1\n      revert\n    tag_42:\n      pop\n      tag_43\n      0x04\n      dup1\n      calldatasize\n      sub\n      dup2\n      add\n      swap1\n      tag_44\n      swap2\n      swap1\n      tag_27\n      jump\t// in\n    tag_44:\n      tag_45\n      jump\t// in\n    tag_43:\n      stop\n        /* \"Magic20.sol\":3715:3741  address public mainAddress */\n    tag_13:\n      0x02\n      0x00\n      swap1\n      sload\n      swap1\n      0x0100\n      exp\n      swap1\n      div\n      0xffffffffffffffffffffffffffffffffffffffff\n      and\n      dup2\n      jump\t// out\n        /* \"Magic20.sol\":3657:3684  address public magicAddress */\n    tag_18:\n      0x01\n      0x00\n      swap1\n      sload\n      swap1\n      0x0100\n      exp\n      swap1\n      div\n      0xffffffffffffffffffffffffffffffffffffffff\n      and\n      dup2\n      jump\t// out\n        /* \"Magic20.sol\":4474:4666  function safeMagicTransfer(address _holder, uint256 _value) public payable {... */\n    tag_23:\n        /* \"Magic20.sol\":4560:4572  IERC20 magic */\n      0x00\n        /* \"Magic20.sol\":4582:4594  magicAddress */\n      0x01\n      0x00\n      swap1\n      sload\n      swap1\n      0x0100\n      exp\n      swap1\n      div\n      0xffffffffffffffffffffffffffffffffffffffff\n      and\n        /* \"Magic20.sol\":4560:4595  IERC20 magic = IERC20(magicAddress) */\n      swap1\n      pop\n        /* \"Magic20.sol\":4606:4658  magic.safeTransferFrom(mainAddress, _holder, _value) */\n      tag_47\n        /* \"Magic20.sol\":4629:4640  mainAddress */\n      0x02\n      0x00\n      swap1\n      sload\n      swap1\n      0x0100\n      exp\n      swap1\n      div\n      0xffffffffffffffffffffffffffffffffffffffff\n      and\n        /* \"Magic20.sol\":4642:4649  _holder */\n      dup5\n        /* \"Magic20.sol\":4651:4657  _value */\n      dup5\n        /* \"Magic20.sol\":4606:4611  magic */\n      dup5\n        /* \"Magic20.sol\":4606:4628  magic.safeTransferFrom */\n      0xffffffffffffffffffffffffffffffffffffffff\n      and\n      tag_48\n      swap1\n        /* \"Magic20.sol\":4606:4658  magic.safeTransferFrom(mainAddress, _holder, _value) */\n      swap4\n      swap3\n      swap2\n      swap1\n      0xffffffff\n      and\n      jump\t// in\n    tag_47:\n        /* \"Magic20.sol\":4549:4666  {... */\n      pop\n        /* \"Magic20.sol\":4474:4666  function safeMagicTransfer(address _holder, uint256 _value) public payable {... */\n      pop\n      pop\n      jump\t// out\n        /* \"Magic20.sol\":4085:4250  function checkBalance(address _holder) public view returns (uint256) {... */\n    tag_28:\n        /* \"Magic20.sol\":4145:4152  uint256 */\n      0x00\n        /* \"Magic20.sol\":4165:4177  IERC20 magic */\n      dup1\n        /* \"Magic20.sol\":4187:4199  magicAddress */\n      0x01\n      0x00\n      swap1\n      sload\n      swap1\n      0x0100\n      exp\n      swap1\n      div\n      0xffffffffffffffffffffffffffffffffffffffff\n      and\n        /* \"Magic20.sol\":4165:4200  IERC20 magic = IERC20(magicAddress) */\n      swap1\n      pop\n        /* \"Magic20.sol\":4218:4223  magic */\n      dup1\n        /* \"Magic20.sol\":4218:4233  magic.balanceOf */\n      0xffffffffffffffffffffffffffffffffffffffff\n      and\n      0x70a08231\n        /* \"Magic20.sol\":4234:4241  _holder */\n      dup5\n        /* \"Magic20.sol\":4218:4242  magic.balanceOf(_holder) */\n      mload(0x40)\n      dup3\n      0xffffffff\n      and\n      0xe0\n      shl\n      dup2\n      mstore\n      0x04\n      add\n      tag_50\n      swap2\n      swap1\n      tag_15\n      jump\t// in\n    tag_50:\n      0x20\n      mload(0x40)\n      dup1\n      dup4\n      sub\n      dup2\n      dup7\n      gas\n      staticcall\n      iszero\n      dup1\n      iszero\n      tag_52\n      jumpi\n      returndatasize\n      0x00\n      dup1\n      returndatacopy\n      revert(0x00, returndatasize)\n    tag_52:\n      pop\n      pop\n      pop\n      pop\n      mload(0x40)\n      returndatasize\n      not(0x1f)\n      0x1f\n      dup3\n      add\n      and\n      dup3\n      add\n      dup1\n      0x40\n      mstore\n      pop\n      dup2\n      add\n      swap1\n      tag_53\n      swap2\n      swap1\n      tag_54\n      jump\t// in\n    tag_53:\n        /* \"Magic20.sol\":4211:4242  return magic.balanceOf(_holder) */\n      swap2\n      pop\n      pop\n        /* \"Magic20.sol\":4085:4250  function checkBalance(address _holder) public view returns (uint256) {... */\n      swap2\n      swap1\n      pop\n      jump\t// out\n        /* \"@openzeppelin/contracts/access/Ownable.sol\":1668:1769  function renounceOwnership() public virtual onlyOwner {... */\n    tag_33:\n        /* \"@openzeppelin/contracts/access/Ownable.sol\":1259:1271  _msgSender() */\n      tag_56\n        /* \"@openzeppelin/contracts/access/Ownable.sol\":1259:1269  _msgSender */\n      tag_57\n        /* \"@openzeppelin/contracts/access/Ownable.sol\":1259:1271  _msgSender() */\n      jump\t// in\n    tag_56:\n        /* \"@openzeppelin/contracts/access/Ownable.sol\":1248:1271  owner() == _msgSender() */\n      0xffffffffffffffffffffffffffffffffffffffff\n      and\n        /* \"@openzeppelin/contracts/access/Ownable.sol\":1248:1255  owner() */\n      tag_58\n        /* \"@openzeppelin/contracts/access/Ownable.sol\":1248:1253  owner */\n      tag_36\n        /* \"@openzeppelin/contracts/access/Ownable.sol\":1248:1255  owner() */\n      jump\t// in\n    tag_58:\n        /* \"@openzeppelin/contracts/access/Ownable.sol\":1248:1271  owner() == _msgSender() */\n      0xffffffffffffffffffffffffffffffffffffffff\n      and\n      eq\n        /* \"@openzeppelin/contracts/access/Ownable.sol\":1240:1308  require(owner() == _msgSender(), \"Ownable: caller is not the owner\") */\n      tag_59\n      jumpi\n      mload(0x40)\n      0x08c379a000000000000000000000000000000000000000000000000000000000\n      dup2\n      mstore\n      0x04\n      add\n      tag_60\n      swap1\n      tag_61\n      jump\t// in\n    tag_60:\n      mload(0x40)\n      dup1\n      swap2\n      sub\n      swap1\n      revert\n    tag_59:\n        /* \"@openzeppelin/contracts/access/Ownable.sol\":1732:1762  _transferOwnership(address(0)) */\n      tag_63\n        /* \"@openzeppelin/contracts/access/Ownable.sol\":1759:1760  0 */\n      0x00\n        /* \"@openzeppelin/contracts/access/Ownable.sol\":1732:1750  _transferOwnership */\n      tag_64\n        /* \"@openzeppelin/contracts/access/Ownable.sol\":1732:1762  _transferOwnership(address(0)) */\n      jump\t// in\n    tag_63:\n        /* \"@openzeppelin/contracts/access/Ownable.sol\":1668:1769  function renounceOwnership() public virtual onlyOwner {... */\n      jump\t// out\n        /* \"@openzeppelin/contracts/access/Ownable.sol\":1036:1121  function owner() public view virtual returns (address) {... */\n    tag_36:\n        /* \"@openzeppelin/contracts/access/Ownable.sol\":1082:1089  address */\n      0x00\n        /* \"@openzeppelin/contracts/access/Ownable.sol\":1108:1114  _owner */\n      dup1\n      0x00\n      swap1\n      sload\n      swap1\n      0x0100\n      exp\n      swap1\n      div\n      0xffffffffffffffffffffffffffffffffffffffff\n      and\n        /* \"@openzeppelin/contracts/access/Ownable.sol\":1101:1114  return _owner */\n      swap1\n      pop\n        /* \"@openzeppelin/contracts/access/Ownable.sol\":1036:1121  function owner() public view virtual returns (address) {... */\n      swap1\n      jump\t// out\n        /* \"Magic20.sol\":4903:5017  function setMagicAddress(address _magicAddress) external onlyOwner {... */\n    tag_41:\n        /* \"@openzeppelin/contracts/access/Ownable.sol\":1259:1271  _msgSender() */\n      tag_67\n        /* \"@openzeppelin/contracts/access/Ownable.sol\":1259:1269  _msgSender */\n      tag_57\n        /* \"@openzeppelin/contracts/access/Ownable.sol\":1259:1271  _msgSender() */\n      jump\t// in\n    tag_67:\n        /* \"@openzeppelin/contracts/access/Ownable.sol\":1248:1271  owner() == _msgSender() */\n      0xffffffffffffffffffffffffffffffffffffffff\n      and\n        /* \"@openzeppelin/contracts/access/Ownable.sol\":1248:1255  owner() */\n      tag_68\n        /* \"@openzeppelin/contracts/access/Ownable.sol\":1248:1253  owner */\n      tag_36\n        /* \"@openzeppelin/contracts/access/Ownable.sol\":1248:1255  owner() */\n      jump\t// in\n    tag_68:\n        /* \"@openzeppelin/contracts/access/Ownable.sol\":1248:1271  owner() == _msgSender() */\n      0xffffffffffffffffffffffffffffffffffffffff\n      and\n      eq\n        /* \"@openzeppelin/contracts/access/Ownable.sol\":1240:1308  require(owner() == _msgSender(), \"Ownable: caller is not the owner\") */\n      tag_69\n      jumpi\n      mload(0x40)\n      0x08c379a000000000000000000000000000000000000000000000000000000000\n      dup2\n      mstore\n      0x04\n      add\n      tag_70\n      swap1\n      tag_61\n      jump\t// in\n    tag_70:\n      mload(0x40)\n      dup1\n      swap2\n      sub\n      swap1\n      revert\n    tag_69:\n        /* \"Magic20.sol\":4996:5009  _magicAddress */\n      dup1\n        /* \"Magic20.sol\":4981:4993  magicAddress */\n      0x01\n      0x00\n        /* \"Magic20.sol\":4981:5009  magicAddress = _magicAddress */\n      0x0100\n      exp\n      dup2\n      sload\n      dup2\n      0xffffffffffffffffffffffffffffffffffffffff\n      mul\n      not\n      and\n      swap1\n      dup4\n      0xffffffffffffffffffffffffffffffffffffffff\n      and\n      mul\n      or\n      swap1\n      sstore\n      pop\n        /* \"Magic20.sol\":4903:5017  function setMagicAddress(address _magicAddress) external onlyOwner {... */\n      pop\n      jump\t// out\n        /* \"@openzeppelin/contracts/access/Ownable.sol\":1918:2116  function transferOwnership(address newOwner) public virtual onlyOwner {... */\n    tag_45:\n        /* \"@openzeppelin/contracts/access/Ownable.sol\":1259:1271  _msgSender() */\n      tag_73\n        /* \"@openzeppelin/contracts/access/Ownable.sol\":1259:1269  _msgSender */\n      tag_57\n        /* \"@openzeppelin/contracts/access/Ownable.sol\":1259:1271  _msgSender() */\n      jump\t// in\n    tag_73:\n        /* \"@openzeppelin/contracts/access/Ownable.sol\":1248:1271  owner() == _msgSender() */\n      0xffffffffffffffffffffffffffffffffffffffff\n      and\n        /* \"@openzeppelin/contracts/access/Ownable.sol\":1248:1255  owner() */\n      tag_74\n        /* \"@openzeppelin/contracts/access/Ownable.sol\":1248:1253  owner */\n      tag_36\n        /* \"@openzeppelin/contracts/access/Ownable.sol\":1248:1255  owner() */\n      jump\t// in\n    tag_74:\n        /* \"@openzeppelin/contracts/access/Ownable.sol\":1248:1271  owner() == _msgSender() */\n      0xffffffffffffffffffffffffffffffffffffffff\n      and\n      eq\n        /* \"@openzeppelin/contracts/access/Ownable.sol\":1240:1308  require(owner() == _msgSender(), \"Ownable: caller is not the owner\") */\n      tag_75\n      jumpi\n      mload(0x40)\n      0x08c379a000000000000000000000000000000000000000000000000000000000\n      dup2\n      mstore\n      0x04\n      add\n      tag_76\n      swap1\n      tag_61\n      jump\t// in\n    tag_76:\n      mload(0x40)\n      dup1\n      swap2\n      sub\n      swap1\n      revert\n    tag_75:\n        /* \"@openzeppelin/contracts/access/Ownable.sol\":2026:2027  0 */\n      0x00\n        /* \"@openzeppelin/contracts/access/Ownable.sol\":2006:2028  newOwner != address(0) */\n      0xffffffffffffffffffffffffffffffffffffffff\n      and\n        /* \"@openzeppelin/contracts/access/Ownable.sol\":2006:2014  newOwner */\n      dup2\n        /* \"@openzeppelin/contracts/access/Ownable.sol\":2006:2028  newOwner != address(0) */\n      0xffffffffffffffffffffffffffffffffffffffff\n      and\n      sub\n        /* \"@openzeppelin/contracts/access/Ownable.sol\":1998:2071  require(newOwner != address(0), \"Ownable: new owner is the zero address\") */\n      tag_78\n      jumpi\n      mload(0x40)\n      0x08c379a000000000000000000000000000000000000000000000000000000000\n      dup2\n      mstore\n      0x04\n      add\n      tag_79\n      swap1\n      tag_80\n      jump\t// in\n    tag_79:\n      mload(0x40)\n      dup1\n      swap2\n      sub\n      swap1\n      revert\n    tag_78:\n        /* \"@openzeppelin/contracts/access/Ownable.sol\":2081:2109  _transferOwnership(newOwner) */\n      tag_81\n        /* \"@openzeppelin/contracts/access/Ownable.sol\":2100:2108  newOwner */\n      dup2\n        /* \"@openzeppelin/contracts/access/Ownable.sol\":2081:2099  _transferOwnership */\n      tag_64\n        /* \"@openzeppelin/contracts/access/Ownable.sol\":2081:2109  _transferOwnership(newOwner) */\n      jump\t// in\n    tag_81:\n        /* \"@openzeppelin/contracts/access/Ownable.sol\":1918:2116  function transferOwnership(address newOwner) public virtual onlyOwner {... */\n      pop\n      jump\t// out\n        /* \"@openzeppelin/contracts/token/ERC20/utils/SafeERC20.sol\":912:1153  function safeTransferFrom(... */\n    tag_48:\n        /* \"@openzeppelin/contracts/token/ERC20/utils/SafeERC20.sol\":1050:1146  _callOptionalReturn(token, abi.encodeWithSelector(token.transferFrom.selector, from, to, value)) */\n      tag_83\n        /* \"@openzeppelin/contracts/token/ERC20/utils/SafeERC20.sol\":1070:1075  token */\n      dup5\n        /* \"@openzeppelin/contracts/token/ERC20/utils/SafeERC20.sol\":1100:1127  token.transferFrom.selector */\n      shl(0xe0, 0x23b872dd)\n        /* \"@openzeppelin/contracts/token/ERC20/utils/SafeERC20.sol\":1129:1133  from */\n      dup6\n        /* \"@openzeppelin/contracts/token/ERC20/utils/SafeERC20.sol\":1135:1137  to */\n      dup6\n        /* \"@openzeppelin/contracts/token/ERC20/utils/SafeERC20.sol\":1139:1144  value */\n      dup6\n        /* \"@openzeppelin/contracts/token/ERC20/utils/SafeERC20.sol\":1077:1145  abi.encodeWithSelector(token.transferFrom.selector, from, to, value) */\n      add(0x24, mload(0x40))\n      tag_84\n      swap4\n      swap3\n      swap2\n      swap1\n      tag_85\n      jump\t// in\n    tag_84:\n      mload(0x40)\n      0x20\n      dup2\n      dup4\n      sub\n      sub\n      dup2\n      mstore\n      swap1\n      0x40\n      mstore\n      swap1\n      not(0xffffffffffffffffffffffffffffffffffffffffffffffffffffffff)\n      and\n      0x20\n      dup3\n      add\n      dup1\n      mload\n      0xffffffffffffffffffffffffffffffffffffffffffffffffffffffff\n      dup4\n      dup2\n      dup4\n      and\n      or\n      dup4\n      mstore\n      pop\n      pop\n      pop\n      pop\n        /* \"@openzeppelin/contracts/token/ERC20/utils/SafeERC20.sol\":1050:1069  _callOptionalReturn */\n      tag_86\n        /* \"@openzeppelin/contracts/token/ERC20/utils/SafeERC20.sol\":1050:1146  _callOptionalReturn(token, abi.encodeWithSelector(token.transferFrom.selector, from, to, value)) */\n      jump\t// in\n    tag_83:\n        /* \"@openzeppelin/contracts/token/ERC20/utils/SafeERC20.sol\":912:1153  function safeTransferFrom(... */\n      pop\n      pop\n      pop\n      pop\n      jump\t// out\n        /* \"@openzeppelin/contracts/utils/Context.sol\":640:736  function _msgSender() internal view virtual returns (address) {... */\n    tag_57:\n        /* \"@openzeppelin/contracts/utils/Context.sol\":693:700  address */\n      0x00\n        /* \"@openzeppelin/contracts/utils/Context.sol\":719:729  msg.sender */\n      caller\n        /* \"@openzeppelin/contracts/utils/Context.sol\":712:729  return msg.sender */\n      swap1\n      pop\n        /* \"@openzeppelin/contracts/utils/Context.sol\":640:736  function _msgSender() internal view virtual returns (address) {... */\n      swap1\n      jump\t// out\n        /* \"@openzeppelin/contracts/access/Ownable.sol\":2270:2457  function _transferOwnership(address newOwner) internal virtual {... */\n    tag_64:\n        /* \"@openzeppelin/contracts/access/Ownable.sol\":2343:2359  address oldOwner */\n      0x00\n        /* \"@openzeppelin/contracts/access/Ownable.sol\":2362:2368  _owner */\n      dup1\n      0x00\n      swap1\n      sload\n      swap1\n      0x0100\n      exp\n      swap1\n      div\n      0xffffffffffffffffffffffffffffffffffffffff\n      and\n        /* \"@openzeppelin/contracts/access/Ownable.sol\":2343:2368  address oldOwner = _owner */\n      swap1\n      pop\n        /* \"@openzeppelin/contracts/access/Ownable.sol\":2387:2395  newOwner */\n      dup2\n        /* \"@openzeppelin/contracts/access/Ownable.sol\":2378:2384  _owner */\n      0x00\n      dup1\n        /* \"@openzeppelin/contracts/access/Ownable.sol\":2378:2395  _owner = newOwner */\n      0x0100\n      exp\n      dup2\n      sload\n      dup2\n      0xffffffffffffffffffffffffffffffffffffffff\n      mul\n      not\n      and\n      swap1\n      dup4\n      0xffffffffffffffffffffffffffffffffffffffff\n      and\n      mul\n      or\n      swap1\n      sstore\n      pop\n        /* \"@openzeppelin/contracts/access/Ownable.sol\":2441:2449  newOwner */\n      dup2\n        /* \"@openzeppelin/contracts/access/Ownable.sol\":2410:2450  OwnershipTransferred(oldOwner, newOwner) */\n      0xffffffffffffffffffffffffffffffffffffffff\n      and\n        /* \"@openzeppelin/contracts/access/Ownable.sol\":2431:2439  oldOwner */\n      dup2\n        /* \"@openzeppelin/contracts/access/Ownable.sol\":2410:2450  OwnershipTransferred(oldOwner, newOwner) */\n      0xffffffffffffffffffffffffffffffffffffffff\n      and\n      0x8be0079c531659141344cd1fd0a4f28419497f9722a3daafe3b4186f6b6457e0\n      mload(0x40)\n      mload(0x40)\n      dup1\n      swap2\n      sub\n      swap1\n      log3\n        /* \"@openzeppelin/contracts/access/Ownable.sol\":2333:2457  {... */\n      pop\n        /* \"@openzeppelin/contracts/access/Ownable.sol\":2270:2457  function _transferOwnership(address newOwner) internal virtual {... */\n      pop\n      jump\t// out\n        /* \"@openzeppelin/contracts/token/ERC20/utils/SafeERC20.sol\":3207:3913  function _callOptionalReturn(IERC20 token, bytes memory data) private {... */\n    tag_86:\n        /* \"@openzeppelin/contracts/token/ERC20/utils/SafeERC20.sol\":3626:3649  bytes memory returndata */\n      0x00\n        /* \"@openzeppelin/contracts/token/ERC20/utils/SafeERC20.sol\":3652:3721  address(token).functionCall(data, \"SafeERC20: low-level call failed\") */\n      tag_90\n        /* \"@openzeppelin/contracts/token/ERC20/utils/SafeERC20.sol\":3680:3684  data */\n      dup3\n        /* \"@openzeppelin/contracts/token/ERC20/utils/SafeERC20.sol\":3652:3721  address(token).functionCall(data, \"SafeERC20: low-level call failed\") */\n      mload(0x40)\n      dup1\n      0x40\n      add\n      0x40\n      mstore\n      dup1\n      0x20\n      dup2\n      mstore\n      0x20\n      add\n      0x5361666545524332303a206c6f772d6c6576656c2063616c6c206661696c6564\n      dup2\n      mstore\n      pop\n        /* \"@openzeppelin/contracts/token/ERC20/utils/SafeERC20.sol\":3660:3665  token */\n      dup6\n        /* \"@openzeppelin/contracts/token/ERC20/utils/SafeERC20.sol\":3652:3679  address(token).functionCall */\n      0xffffffffffffffffffffffffffffffffffffffff\n      and\n      tag_91\n      swap1\n        /* \"@openzeppelin/contracts/token/ERC20/utils/SafeERC20.sol\":3652:3721  address(token).functionCall(data, \"SafeERC20: low-level call failed\") */\n      swap3\n      swap2\n      swap1\n      0xffffffff\n      and\n      jump\t// in\n    tag_90:\n        /* \"@openzeppelin/contracts/token/ERC20/utils/SafeERC20.sol\":3626:3721  bytes memory returndata = address(token).functionCall(data, \"SafeERC20: low-level call failed\") */\n      swap1\n      pop\n        /* \"@openzeppelin/contracts/token/ERC20/utils/SafeERC20.sol\":3755:3756  0 */\n      0x00\n        /* \"@openzeppelin/contracts/token/ERC20/utils/SafeERC20.sol\":3735:3745  returndata */\n      dup2\n        /* \"@openzeppelin/contracts/token/ERC20/utils/SafeERC20.sol\":3735:3752  returndata.length */\n      mload\n        /* \"@openzeppelin/contracts/token/ERC20/utils/SafeERC20.sol\":3735:3756  returndata.length > 0 */\n      gt\n        /* \"@openzeppelin/contracts/token/ERC20/utils/SafeERC20.sol\":3731:3907  if (returndata.length > 0) {... */\n      iszero\n      tag_92\n      jumpi\n        /* \"@openzeppelin/contracts/token/ERC20/utils/SafeERC20.sol\":3830:3840  returndata */\n      dup1\n        /* \"@openzeppelin/contracts/token/ERC20/utils/SafeERC20.sol\":3819:3849  abi.decode(returndata, (bool)) */\n      dup1\n      0x20\n      add\n      swap1\n      mload\n      dup2\n      add\n      swap1\n      tag_93\n      swap2\n      swap1\n      tag_94\n      jump\t// in\n    tag_93:\n        /* \"@openzeppelin/contracts/token/ERC20/utils/SafeERC20.sol\":3811:3896  require(abi.decode(returndata, (bool)), \"SafeERC20: ERC20 operation did not succeed\") */\n      tag_95\n      jumpi\n      mload(0x40)\n      0x08c379a000000000000000000000000000000000000000000000000000000000\n      dup2\n      mstore\n      0x04\n      add\n      tag_96\n      swap1\n      tag_97\n      jump\t// in\n    tag_96:\n      mload(0x40)\n      dup1\n      swap2\n      sub\n      swap1\n      revert\n    tag_95:\n        /* \"@openzeppelin/contracts/token/ERC20/utils/SafeERC20.sol\":3731:3907  if (returndata.length > 0) {... */\n    tag_92:\n        /* \"@openzeppelin/contracts/token/ERC20/utils/SafeERC20.sol\":3277:3913  {... */\n      pop\n        /* \"@openzeppelin/contracts/token/ERC20/utils/SafeERC20.sol\":3207:3913  function _callOptionalReturn(IERC20 token, bytes memory data) private {... */\n      pop\n      pop\n      jump\t// out\n        /* \"@openzeppelin/contracts/utils/Address.sol\":3861:4084  function functionCall(... */\n    tag_91:\n        /* \"@openzeppelin/contracts/utils/Address.sol\":3994:4006  bytes memory */\n      0x60\n        /* \"@openzeppelin/contracts/utils/Address.sol\":4025:4077  functionCallWithValue(target, data, 0, errorMessage) */\n      tag_99\n        /* \"@openzeppelin/contracts/utils/Address.sol\":4047:4053  target */\n      dup5\n        /* \"@openzeppelin/contracts/utils/Address.sol\":4055:4059  data */\n      dup5\n        /* \"@openzeppelin/contracts/utils/Address.sol\":4061:4062  0 */\n      0x00\n        /* \"@openzeppelin/contracts/utils/Address.sol\":4064:4076  errorMessage */\n      dup6\n        /* \"@openzeppelin/contracts/utils/Address.sol\":4025:4046  functionCallWithValue */\n      tag_100\n        /* \"@openzeppelin/contracts/utils/Address.sol\":4025:4077  functionCallWithValue(target, data, 0, errorMessage) */\n      jump\t// in\n    tag_99:\n        /* \"@openzeppelin/contracts/utils/Address.sol\":4018:4077  return functionCallWithValue(target, data, 0, errorMessage) */\n      swap1\n      pop\n        /* \"@openzeppelin/contracts/utils/Address.sol\":3861:4084  function functionCall(... */\n      swap4\n      swap3\n      pop\n      pop\n      pop\n      jump\t// out\n        /* \"@openzeppelin/contracts/utils/Address.sol\":4948:5447  function functionCallWithValue(... */\n    tag_100:\n        /* \"@openzeppelin/contracts/utils/Address.sol\":5113:5125  bytes memory */\n      0x60\n        /* \"@openzeppelin/contracts/utils/Address.sol\":5170:5175  value */\n      dup3\n        /* \"@openzeppelin/contracts/utils/Address.sol\":5145:5166  address(this).balance */\n      selfbalance\n        /* \"@openzeppelin/contracts/utils/Address.sol\":5145:5175  address(this).balance >= value */\n      lt\n      iszero\n        /* \"@openzeppelin/contracts/utils/Address.sol\":5137:5218  require(address(this).balance >= value, \"Address: insufficient balance for call\") */\n      tag_102\n      jumpi\n      mload(0x40)\n      0x08c379a000000000000000000000000000000000000000000000000000000000\n      dup2\n      mstore\n      0x04\n      add\n      tag_103\n      swap1\n      tag_104\n      jump\t// in\n    tag_103:\n      mload(0x40)\n      dup1\n      swap2\n      sub\n      swap1\n      revert\n    tag_102:\n        /* \"@openzeppelin/contracts/utils/Address.sol\":5236:5254  isContract(target) */\n      tag_105\n        /* \"@openzeppelin/contracts/utils/Address.sol\":5247:5253  target */\n      dup6\n        /* \"@openzeppelin/contracts/utils/Address.sol\":5236:5246  isContract */\n      tag_106\n        /* \"@openzeppelin/contracts/utils/Address.sol\":5236:5254  isContract(target) */\n      jump\t// in\n    tag_105:\n        /* \"@openzeppelin/contracts/utils/Address.sol\":5228:5288  require(isContract(target), \"Address: call to non-contract\") */\n      tag_107\n      jumpi\n      mload(0x40)\n      0x08c379a000000000000000000000000000000000000000000000000000000000\n      dup2\n      mstore\n      0x04\n      add\n      tag_108\n      swap1\n      tag_109\n      jump\t// in\n    tag_108:\n      mload(0x40)\n      dup1\n      swap2\n      sub\n      swap1\n      revert\n    tag_107:\n        /* \"@openzeppelin/contracts/utils/Address.sol\":5300:5312  bool success */\n      0x00\n        /* \"@openzeppelin/contracts/utils/Address.sol\":5314:5337  bytes memory returndata */\n      dup1\n        /* \"@openzeppelin/contracts/utils/Address.sol\":5341:5347  target */\n      dup7\n        /* \"@openzeppelin/contracts/utils/Address.sol\":5341:5352  target.call */\n      0xffffffffffffffffffffffffffffffffffffffff\n      and\n        /* \"@openzeppelin/contracts/utils/Address.sol\":5360:5365  value */\n      dup6\n        /* \"@openzeppelin/contracts/utils/Address.sol\":5367:5371  data */\n      dup8\n        /* \"@openzeppelin/contracts/utils/Address.sol\":5341:5372  target.call{value: value}(data) */\n      mload(0x40)\n      tag_110\n      swap2\n      swap1\n      tag_111\n      jump\t// in\n    tag_110:\n      0x00\n      mload(0x40)\n      dup1\n      dup4\n      sub\n      dup2\n      dup6\n      dup8\n      gas\n      call\n      swap3\n      pop\n      pop\n      pop\n      returndatasize\n      dup1\n      0x00\n      dup2\n      eq\n      tag_114\n      jumpi\n      mload(0x40)\n      swap2\n      pop\n      and(add(returndatasize, 0x3f), not(0x1f))\n      dup3\n      add\n      0x40\n      mstore\n      returndatasize\n      dup3\n      mstore\n      returndatasize\n      0x00\n      0x20\n      dup5\n      add\n      returndatacopy\n      jump(tag_113)\n    tag_114:\n      0x60\n      swap2\n      pop\n    tag_113:\n      pop\n        /* \"@openzeppelin/contracts/utils/Address.sol\":5299:5372  (bool success, bytes memory returndata) = target.call{value: value}(data) */\n      swap2\n      pop\n      swap2\n      pop\n        /* \"@openzeppelin/contracts/utils/Address.sol\":5389:5440  verifyCallResult(success, returndata, errorMessage) */\n      tag_115\n        /* \"@openzeppelin/contracts/utils/Address.sol\":5406:5413  success */\n      dup3\n        /* \"@openzeppelin/contracts/utils/Address.sol\":5415:5425  returndata */\n      dup3\n        /* \"@openzeppelin/contracts/utils/Address.sol\":5427:5439  errorMessage */\n      dup7\n        /* \"@openzeppelin/contracts/utils/Address.sol\":5389:5405  verifyCallResult */\n      tag_116\n        /* \"@openzeppelin/contracts/utils/Address.sol\":5389:5440  verifyCallResult(success, returndata, errorMessage) */\n      jump\t// in\n    tag_115:\n        /* \"@openzeppelin/contracts/utils/Address.sol\":5382:5440  return verifyCallResult(success, returndata, errorMessage) */\n      swap3\n      pop\n      pop\n      pop\n        /* \"@openzeppelin/contracts/utils/Address.sol\":4948:5447  function functionCallWithValue(... */\n      swap5\n      swap4\n      pop\n      pop\n      pop\n      pop\n      jump\t// out\n        /* \"@openzeppelin/contracts/utils/Address.sol\":1175:1495  function isContract(address account) internal view returns (bool) {... */\n    tag_106:\n        /* \"@openzeppelin/contracts/utils/Address.sol\":1235:1239  bool */\n      0x00\n        /* \"@openzeppelin/contracts/utils/Address.sol\":1487:1488  0 */\n      dup1\n        /* \"@openzeppelin/contracts/utils/Address.sol\":1465:1472  account */\n      dup3\n        /* \"@openzeppelin/contracts/utils/Address.sol\":1465:1484  account.code.length */\n      0xffffffffffffffffffffffffffffffffffffffff\n      and\n      extcodesize\n        /* \"@openzeppelin/contracts/utils/Address.sol\":1465:1488  account.code.length > 0 */\n      gt\n        /* \"@openzeppelin/contracts/utils/Address.sol\":1458:1488  return account.code.length > 0 */\n      swap1\n      pop\n        /* \"@openzeppelin/contracts/utils/Address.sol\":1175:1495  function isContract(address account) internal view returns (bool) {... */\n      swap2\n      swap1\n      pop\n      jump\t// out\n        /* \"@openzeppelin/contracts/utils/Address.sol\":7561:8253  function verifyCallResult(... */\n    tag_116:\n        /* \"@openzeppelin/contracts/utils/Address.sol\":7707:7719  bytes memory */\n      0x60\n        /* \"@openzeppelin/contracts/utils/Address.sol\":7735:7742  success */\n      dup4\n        /* \"@openzeppelin/contracts/utils/Address.sol\":7731:8247  if (success) {... */\n      iszero\n      tag_119\n      jumpi\n        /* \"@openzeppelin/contracts/utils/Address.sol\":7765:7775  returndata */\n      dup3\n        /* \"@openzeppelin/contracts/utils/Address.sol\":7758:7775  return returndata */\n      swap1\n      pop\n      jump(tag_118)\n        /* \"@openzeppelin/contracts/utils/Address.sol\":7731:8247  if (success) {... */\n    tag_119:\n        /* \"@openzeppelin/contracts/utils/Address.sol\":7896:7897  0 */\n      0x00\n        /* \"@openzeppelin/contracts/utils/Address.sol\":7876:7886  returndata */\n      dup4\n        /* \"@openzeppelin/contracts/utils/Address.sol\":7876:7893  returndata.length */\n      mload\n        /* \"@openzeppelin/contracts/utils/Address.sol\":7876:7897  returndata.length > 0 */\n      gt\n        /* \"@openzeppelin/contracts/utils/Address.sol\":7872:8237  if (returndata.length > 0) {... */\n      iszero\n      tag_121\n      jumpi\n        /* \"@openzeppelin/contracts/utils/Address.sol\":8070:8080  returndata */\n      dup3\n        /* \"@openzeppelin/contracts/utils/Address.sol\":8064:8081  mload(returndata) */\n      mload\n        /* \"@openzeppelin/contracts/utils/Address.sol\":8130:8145  returndata_size */\n      dup1\n        /* \"@openzeppelin/contracts/utils/Address.sol\":8117:8127  returndata */\n      dup5\n        /* \"@openzeppelin/contracts/utils/Address.sol\":8113:8115  32 */\n      0x20\n        /* \"@openzeppelin/contracts/utils/Address.sol\":8109:8128  add(32, returndata) */\n      add\n        /* \"@openzeppelin/contracts/utils/Address.sol\":8102:8146  revert(add(32, returndata), returndata_size) */\n      revert\n        /* \"@openzeppelin/contracts/utils/Address.sol\":7872:8237  if (returndata.length > 0) {... */\n    tag_121:\n        /* \"@openzeppelin/contracts/utils/Address.sol\":8209:8221  errorMessage */\n      dup2\n        /* \"@openzeppelin/contracts/utils/Address.sol\":8202:8222  revert(errorMessage) */\n      mload(0x40)\n      0x08c379a000000000000000000000000000000000000000000000000000000000\n      dup2\n      mstore\n      0x04\n      add\n      tag_123\n      swap2\n      swap1\n      tag_124\n      jump\t// in\n    tag_123:\n      mload(0x40)\n      dup1\n      swap2\n      sub\n      swap1\n      revert\n        /* \"@openzeppelin/contracts/utils/Address.sol\":7561:8253  function verifyCallResult(... */\n    tag_118:\n      swap4\n      swap3\n      pop\n      pop\n      pop\n      jump\t// out\n        /* \"#utility.yul\":7:133   */\n    tag_125:\n        /* \"#utility.yul\":44:51   */\n      0x00\n        /* \"#utility.yul\":84:126   */\n      0xffffffffffffffffffffffffffffffffffffffff\n        /* \"#utility.yul\":77:82   */\n      dup3\n        /* \"#utility.yul\":73:127   */\n      and\n        /* \"#utility.yul\":62:127   */\n      swap1\n      pop\n        /* \"#utility.yul\":7:133   */\n      swap2\n      swap1\n      pop\n      jump\t// out\n        /* \"#utility.yul\":139:235   */\n    tag_126:\n        /* \"#utility.yul\":176:183   */\n      0x00\n        /* \"#utility.yul\":205:229   */\n      tag_162\n        /* \"#utility.yul\":223:228   */\n      dup3\n        /* \"#utility.yul\":205:229   */\n      tag_125\n      jump\t// in\n    tag_162:\n        /* \"#utility.yul\":194:229   */\n      swap1\n      pop\n        /* \"#utility.yul\":139:235   */\n      swap2\n      swap1\n      pop\n      jump\t// out\n        /* \"#utility.yul\":241:359   */\n    tag_127:\n        /* \"#utility.yul\":328:352   */\n      tag_164\n        /* \"#utility.yul\":346:351   */\n      dup2\n        /* \"#utility.yul\":328:352   */\n      tag_126\n      jump\t// in\n    tag_164:\n        /* \"#utility.yul\":323:326   */\n      dup3\n        /* \"#utility.yul\":316:353   */\n      mstore\n        /* \"#utility.yul\":241:359   */\n      pop\n      pop\n      jump\t// out\n        /* \"#utility.yul\":365:587   */\n    tag_15:\n        /* \"#utility.yul\":458:462   */\n      0x00\n        /* \"#utility.yul\":496:498   */\n      0x20\n        /* \"#utility.yul\":485:494   */\n      dup3\n        /* \"#utility.yul\":481:499   */\n      add\n        /* \"#utility.yul\":473:499   */\n      swap1\n      pop\n        /* \"#utility.yul\":509:580   */\n      tag_166\n        /* \"#utility.yul\":577:578   */\n      0x00\n        /* \"#utility.yul\":566:575   */\n      dup4\n        /* \"#utility.yul\":562:579   */\n      add\n        /* \"#utility.yul\":553:559   */\n      dup5\n        /* \"#utility.yul\":509:580   */\n      tag_127\n      jump\t// in\n    tag_166:\n        /* \"#utility.yul\":365:587   */\n      swap3\n      swap2\n      pop\n      pop\n      jump\t// out\n        /* \"#utility.yul\":674:791   */\n    tag_129:\n        /* \"#utility.yul\":783:784   */\n      0x00\n        /* \"#utility.yul\":780:781   */\n      dup1\n        /* \"#utility.yul\":773:785   */\n      revert\n        /* \"#utility.yul\":920:1042   */\n    tag_131:\n        /* \"#utility.yul\":993:1017   */\n      tag_171\n        /* \"#utility.yul\":1011:1016   */\n      dup2\n        /* \"#utility.yul\":993:1017   */\n      tag_126\n      jump\t// in\n    tag_171:\n        /* \"#utility.yul\":986:991   */\n      dup2\n        /* \"#utility.yul\":983:1018   */\n      eq\n        /* \"#utility.yul\":973:1036   */\n      tag_172\n      jumpi\n        /* \"#utility.yul\":1032:1033   */\n      0x00\n        /* \"#utility.yul\":1029:1030   */\n      dup1\n        /* \"#utility.yul\":1022:1034   */\n      revert\n        /* \"#utility.yul\":973:1036   */\n    tag_172:\n        /* \"#utility.yul\":920:1042   */\n      pop\n      jump\t// out\n        /* \"#utility.yul\":1048:1187   */\n    tag_132:\n        /* \"#utility.yul\":1094:1099   */\n      0x00\n        /* \"#utility.yul\":1132:1138   */\n      dup2\n        /* \"#utility.yul\":1119:1139   */\n      calldataload\n        /* \"#utility.yul\":1110:1139   */\n      swap1\n      pop\n        /* \"#utility.yul\":1148:1181   */\n      tag_174\n        /* \"#utility.yul\":1175:1180   */\n      dup2\n        /* \"#utility.yul\":1148:1181   */\n      tag_131\n      jump\t// in\n    tag_174:\n        /* \"#utility.yul\":1048:1187   */\n      swap3\n      swap2\n      pop\n      pop\n      jump\t// out\n        /* \"#utility.yul\":1193:1270   */\n    tag_133:\n        /* \"#utility.yul\":1230:1237   */\n      0x00\n        /* \"#utility.yul\":1259:1264   */\n      dup2\n        /* \"#utility.yul\":1248:1264   */\n      swap1\n      pop\n        /* \"#utility.yul\":1193:1270   */\n      swap2\n      swap1\n      pop\n      jump\t// out\n        /* \"#utility.yul\":1276:1398   */\n    tag_134:\n        /* \"#utility.yul\":1349:1373   */\n      tag_177\n        /* \"#utility.yul\":1367:1372   */\n      dup2\n        /* \"#utility.yul\":1349:1373   */\n      tag_133\n      jump\t// in\n    tag_177:\n        /* \"#utility.yul\":1342:1347   */\n      dup2\n        /* \"#utility.yul\":1339:1374   */\n      eq\n        /* \"#utility.yul\":1329:1392   */\n      tag_178\n      jumpi\n        /* \"#utility.yul\":1388:1389   */\n      0x00\n        /* \"#utility.yul\":1385:1386   */\n      dup1\n        /* \"#utility.yul\":1378:1390   */\n      revert\n        /* \"#utility.yul\":1329:1392   */\n    tag_178:\n        /* \"#utility.yul\":1276:1398   */\n      pop\n      jump\t// out\n        /* \"#utility.yul\":1404:1543   */\n    tag_135:\n        /* \"#utility.yul\":1450:1455   */\n      0x00\n        /* \"#utility.yul\":1488:1494   */\n      dup2\n        /* \"#utility.yul\":1475:1495   */\n      calldataload\n        /* \"#utility.yul\":1466:1495   */\n      swap1\n      pop\n        /* \"#utility.yul\":1504:1537   */\n      tag_180\n        /* \"#utility.yul\":1531:1536   */\n      dup2\n        /* \"#utility.yul\":1504:1537   */\n      tag_134\n      jump\t// in\n    tag_180:\n        /* \"#utility.yul\":1404:1543   */\n      swap3\n      swap2\n      pop\n      pop\n      jump\t// out\n        /* \"#utility.yul\":1549:2023   */\n    tag_22:\n        /* \"#utility.yul\":1617:1623   */\n      0x00\n        /* \"#utility.yul\":1625:1631   */\n      dup1\n        /* \"#utility.yul\":1674:1676   */\n      0x40\n        /* \"#utility.yul\":1662:1671   */\n      dup4\n        /* \"#utility.yul\":1653:1660   */\n      dup6\n        /* \"#utility.yul\":1649:1672   */\n      sub\n        /* \"#utility.yul\":1645:1677   */\n      slt\n        /* \"#utility.yul\":1642:1761   */\n      iszero\n      tag_182\n      jumpi\n        /* \"#utility.yul\":1680:1759   */\n      tag_183\n      tag_129\n      jump\t// in\n    tag_183:\n        /* \"#utility.yul\":1642:1761   */\n    tag_182:\n        /* \"#utility.yul\":1800:1801   */\n      0x00\n        /* \"#utility.yul\":1825:1878   */\n      tag_184\n        /* \"#utility.yul\":1870:1877   */\n      dup6\n        /* \"#utility.yul\":1861:1867   */\n      dup3\n        /* \"#utility.yul\":1850:1859   */\n      dup7\n        /* \"#utility.yul\":1846:1868   */\n      add\n        /* \"#utility.yul\":1825:1878   */\n      tag_132\n      jump\t// in\n    tag_184:\n        /* \"#utility.yul\":1815:1878   */\n      swap3\n      pop\n        /* \"#utility.yul\":1771:1888   */\n      pop\n        /* \"#utility.yul\":1927:1929   */\n      0x20\n        /* \"#utility.yul\":1953:2006   */\n      tag_185\n        /* \"#utility.yul\":1998:2005   */\n      dup6\n        /* \"#utility.yul\":1989:1995   */\n      dup3\n        /* \"#utility.yul\":1978:1987   */\n      dup7\n        /* \"#utility.yul\":1974:1996   */\n      add\n        /* \"#utility.yul\":1953:2006   */\n      tag_135\n      jump\t// in\n    tag_185:\n        /* \"#utility.yul\":1943:2006   */\n      swap2\n      pop\n        /* \"#utility.yul\":1898:2016   */\n      pop\n        /* \"#utility.yul\":1549:2023   */\n      swap3\n      pop\n      swap3\n      swap1\n      pop\n      jump\t// out\n        /* \"#utility.yul\":2029:2358   */\n    tag_27:\n        /* \"#utility.yul\":2088:2094   */\n      0x00\n        /* \"#utility.yul\":2137:2139   */\n      0x20\n        /* \"#utility.yul\":2125:2134   */\n      dup3\n        /* \"#utility.yul\":2116:2123   */\n      dup5\n        /* \"#utility.yul\":2112:2135   */\n      sub\n        /* \"#utility.yul\":2108:2140   */\n      slt\n        /* \"#utility.yul\":2105:2224   */\n      iszero\n      tag_187\n      jumpi\n        /* \"#utility.yul\":2143:2222   */\n      tag_188\n      tag_129\n      jump\t// in\n    tag_188:\n        /* \"#utility.yul\":2105:2224   */\n    tag_187:\n        /* \"#utility.yul\":2263:2264   */\n      0x00\n        /* \"#utility.yul\":2288:2341   */\n      tag_189\n        /* \"#utility.yul\":2333:2340   */\n      dup5\n        /* \"#utility.yul\":2324:2330   */\n      dup3\n        /* \"#utility.yul\":2313:2322   */\n      dup6\n        /* \"#utility.yul\":2309:2331   */\n      add\n        /* \"#utility.yul\":2288:2341   */\n      tag_132\n      jump\t// in\n    tag_189:\n        /* \"#utility.yul\":2278:2341   */\n      swap2\n      pop\n        /* \"#utility.yul\":2234:2351   */\n      pop\n        /* \"#utility.yul\":2029:2358   */\n      swap3\n      swap2\n      pop\n      pop\n      jump\t// out\n        /* \"#utility.yul\":2364:2482   */\n    tag_136:\n        /* \"#utility.yul\":2451:2475   */\n      tag_191\n        /* \"#utility.yul\":2469:2474   */\n      dup2\n        /* \"#utility.yul\":2451:2475   */\n      tag_133\n      jump\t// in\n    tag_191:\n        /* \"#utility.yul\":2446:2449   */\n      dup3\n        /* \"#utility.yul\":2439:2476   */\n      mstore\n        /* \"#utility.yul\":2364:2482   */\n      pop\n      pop\n      jump\t// out\n        /* \"#utility.yul\":2488:2710   */\n    tag_30:\n        /* \"#utility.yul\":2581:2585   */\n      0x00\n        /* \"#utility.yul\":2619:2621   */\n      0x20\n        /* \"#utility.yul\":2608:2617   */\n      dup3\n        /* \"#utility.yul\":2604:2622   */\n      add\n        /* \"#utility.yul\":2596:2622   */\n      swap1\n      pop\n        /* \"#utility.yul\":2632:2703   */\n      tag_193\n        /* \"#utility.yul\":2700:2701   */\n      0x00\n        /* \"#utility.yul\":2689:2698   */\n      dup4\n        /* \"#utility.yul\":2685:2702   */\n      add\n        /* \"#utility.yul\":2676:2682   */\n      dup5\n        /* \"#utility.yul\":2632:2703   */\n      tag_136\n      jump\t// in\n    tag_193:\n        /* \"#utility.yul\":2488:2710   */\n      swap3\n      swap2\n      pop\n      pop\n      jump\t// out\n        /* \"#utility.yul\":2716:2859   */\n    tag_137:\n        /* \"#utility.yul\":2773:2778   */\n      0x00\n        /* \"#utility.yul\":2804:2810   */\n      dup2\n        /* \"#utility.yul\":2798:2811   */\n      mload\n        /* \"#utility.yul\":2789:2811   */\n      swap1\n      pop\n        /* \"#utility.yul\":2820:2853   */\n      tag_195\n        /* \"#utility.yul\":2847:2852   */\n      dup2\n        /* \"#utility.yul\":2820:2853   */\n      tag_134\n      jump\t// in\n    tag_195:\n        /* \"#utility.yul\":2716:2859   */\n      swap3\n      swap2\n      pop\n      pop\n      jump\t// out\n        /* \"#utility.yul\":2865:3216   */\n    tag_54:\n        /* \"#utility.yul\":2935:2941   */\n      0x00\n        /* \"#utility.yul\":2984:2986   */\n      0x20\n        /* \"#utility.yul\":2972:2981   */\n      dup3\n        /* \"#utility.yul\":2963:2970   */\n      dup5\n        /* \"#utility.yul\":2959:2982   */\n      sub\n        /* \"#utility.yul\":2955:2987   */\n      slt\n        /* \"#utility.yul\":2952:3071   */\n      iszero\n      tag_197\n      jumpi\n        /* \"#utility.yul\":2990:3069   */\n      tag_198\n      tag_129\n      jump\t// in\n    tag_198:\n        /* \"#utility.yul\":2952:3071   */\n    tag_197:\n        /* \"#utility.yul\":3110:3111   */\n      0x00\n        /* \"#utility.yul\":3135:3199   */\n      tag_199\n        /* \"#utility.yul\":3191:3198   */\n      dup5\n        /* \"#utility.yul\":3182:3188   */\n      dup3\n        /* \"#utility.yul\":3171:3180   */\n      dup6\n        /* \"#utility.yul\":3167:3189   */\n      add\n        /* \"#utility.yul\":3135:3199   */\n      tag_137\n      jump\t// in\n    tag_199:\n        /* \"#utility.yul\":3125:3199   */\n      swap2\n      pop\n        /* \"#utility.yul\":3081:3209   */\n      pop\n        /* \"#utility.yul\":2865:3216   */\n      swap3\n      swap2\n      pop\n      pop\n      jump\t// out\n        /* \"#utility.yul\":3222:3391   */\n    tag_138:\n        /* \"#utility.yul\":3306:3317   */\n      0x00\n        /* \"#utility.yul\":3340:3346   */\n      dup3\n        /* \"#utility.yul\":3335:3338   */\n      dup3\n        /* \"#utility.yul\":3328:3347   */\n      mstore\n        /* \"#utility.yul\":3380:3384   */\n      0x20\n        /* \"#utility.yul\":3375:3378   */\n      dup3\n        /* \"#utility.yul\":3371:3385   */\n      add\n        /* \"#utility.yul\":3356:3385   */\n      swap1\n      pop\n        /* \"#utility.yul\":3222:3391   */\n      swap3\n      swap2\n      pop\n      pop\n      jump\t// out\n        /* \"#utility.yul\":3397:3579   */\n    tag_139:\n        /* \"#utility.yul\":3537:3571   */\n      0x4f776e61626c653a2063616c6c6572206973206e6f7420746865206f776e6572\n        /* \"#utility.yul\":3533:3534   */\n      0x00\n        /* \"#utility.yul\":3525:3531   */\n      dup3\n        /* \"#utility.yul\":3521:3535   */\n      add\n        /* \"#utility.yul\":3514:3572   */\n      mstore\n        /* \"#utility.yul\":3397:3579   */\n      pop\n      jump\t// out\n        /* \"#utility.yul\":3585:3951   */\n    tag_140:\n        /* \"#utility.yul\":3727:3730   */\n      0x00\n        /* \"#utility.yul\":3748:3815   */\n      tag_203\n        /* \"#utility.yul\":3812:3814   */\n      0x20\n        /* \"#utility.yul\":3807:3810   */\n      dup4\n        /* \"#utility.yul\":3748:3815   */\n      tag_138\n      jump\t// in\n    tag_203:\n        /* \"#utility.yul\":3741:3815   */\n      swap2\n      pop\n        /* \"#utility.yul\":3824:3917   */\n      tag_204\n        /* \"#utility.yul\":3913:3916   */\n      dup3\n        /* \"#utility.yul\":3824:3917   */\n      tag_139\n      jump\t// in\n    tag_204:\n        /* \"#utility.yul\":3942:3944   */\n      0x20\n        /* \"#utility.yul\":3937:3940   */\n      dup3\n        /* \"#utility.yul\":3933:3945   */\n      add\n        /* \"#utility.yul\":3926:3945   */\n      swap1\n      pop\n        /* \"#utility.yul\":3585:3951   */\n      swap2\n      swap1\n      pop\n      jump\t// out\n        /* \"#utility.yul\":3957:4376   */\n    tag_61:\n        /* \"#utility.yul\":4123:4127   */\n      0x00\n        /* \"#utility.yul\":4161:4163   */\n      0x20\n        /* \"#utility.yul\":4150:4159   */\n      dup3\n        /* \"#utility.yul\":4146:4164   */\n      add\n        /* \"#utility.yul\":4138:4164   */\n      swap1\n      pop\n        /* \"#utility.yul\":4210:4219   */\n      dup2\n        /* \"#utility.yul\":4204:4208   */\n      dup2\n        /* \"#utility.yul\":4200:4220   */\n      sub\n        /* \"#utility.yul\":4196:4197   */\n      0x00\n        /* \"#utility.yul\":4185:4194   */\n      dup4\n        /* \"#utility.yul\":4181:4198   */\n      add\n        /* \"#utility.yul\":4174:4221   */\n      mstore\n        /* \"#utility.yul\":4238:4369   */\n      tag_206\n        /* \"#utility.yul\":4364:4368   */\n      dup2\n        /* \"#utility.yul\":4238:4369   */\n      tag_140\n      jump\t// in\n    tag_206:\n        /* \"#utility.yul\":4230:4369   */\n      swap1\n      pop\n        /* \"#utility.yul\":3957:4376   */\n      swap2\n      swap1\n      pop\n      jump\t// out\n        /* \"#utility.yul\":4382:4607   */\n    tag_141:\n        /* \"#utility.yul\":4522:4556   */\n      0x4f776e61626c653a206e6577206f776e657220697320746865207a65726f2061\n        /* \"#utility.yul\":4518:4519   */\n      0x00\n        /* \"#utility.yul\":4510:4516   */\n      dup3\n        /* \"#utility.yul\":4506:4520   */\n      add\n        /* \"#utility.yul\":4499:4557   */\n      mstore\n        /* \"#utility.yul\":4591:4599   */\n      0x6464726573730000000000000000000000000000000000000000000000000000\n        /* \"#utility.yul\":4586:4588   */\n      0x20\n        /* \"#utility.yul\":4578:4584   */\n      dup3\n        /* \"#utility.yul\":4574:4589   */\n      add\n        /* \"#utility.yul\":4567:4600   */\n      mstore\n        /* \"#utility.yul\":4382:4607   */\n      pop\n      jump\t// out\n        /* \"#utility.yul\":4613:4979   */\n    tag_142:\n        /* \"#utility.yul\":4755:4758   */\n      0x00\n        /* \"#utility.yul\":4776:4843   */\n      tag_209\n        /* \"#utility.yul\":4840:4842   */\n      0x26\n        /* \"#utility.yul\":4835:4838   */\n      dup4\n        /* \"#utility.yul\":4776:4843   */\n      tag_138\n      jump\t// in\n    tag_209:\n        /* \"#utility.yul\":4769:4843   */\n      swap2\n      pop\n        /* \"#utility.yul\":4852:4945   */\n      tag_210\n        /* \"#utility.yul\":4941:4944   */\n      dup3\n        /* \"#utility.yul\":4852:4945   */\n      tag_141\n      jump\t// in\n    tag_210:\n        /* \"#utility.yul\":4970:4972   */\n      0x40\n        /* \"#utility.yul\":4965:4968   */\n      dup3\n        /* \"#utility.yul\":4961:4973   */\n      add\n        /* \"#utility.yul\":4954:4973   */\n      swap1\n      pop\n        /* \"#utility.yul\":4613:4979   */\n      swap2\n      swap1\n      pop\n      jump\t// out\n        /* \"#utility.yul\":4985:5404   */\n    tag_80:\n        /* \"#utility.yul\":5151:5155   */\n      0x00\n        /* \"#utility.yul\":5189:5191   */\n      0x20\n        /* \"#utility.yul\":5178:5187   */\n      dup3\n        /* \"#utility.yul\":5174:5192   */\n      add\n        /* \"#utility.yul\":5166:5192   */\n      swap1\n      pop\n        /* \"#utility.yul\":5238:5247   */\n      dup2\n        /* \"#utility.yul\":5232:5236   */\n      dup2\n        /* \"#utility.yul\":5228:5248   */\n      sub\n        /* \"#utility.yul\":5224:5225   */\n      0x00\n        /* \"#utility.yul\":5213:5222   */\n      dup4\n        /* \"#utility.yul\":5209:5226   */\n      add\n        /* \"#utility.yul\":5202:5249   */\n      mstore\n        /* \"#utility.yul\":5266:5397   */\n      tag_212\n        /* \"#utility.yul\":5392:5396   */\n      dup2\n        /* \"#utility.yul\":5266:5397   */\n      tag_142\n      jump\t// in\n    tag_212:\n        /* \"#utility.yul\":5258:5397   */\n      swap1\n      pop\n        /* \"#utility.yul\":4985:5404   */\n      swap2\n      swap1\n      pop\n      jump\t// out\n        /* \"#utility.yul\":5410:5852   */\n    tag_85:\n        /* \"#utility.yul\":5559:5563   */\n      0x00\n        /* \"#utility.yul\":5597:5599   */\n      0x60\n        /* \"#utility.yul\":5586:5595   */\n      dup3\n        /* \"#utility.yul\":5582:5600   */\n      add\n        /* \"#utility.yul\":5574:5600   */\n      swap1\n      pop\n        /* \"#utility.yul\":5610:5681   */\n      tag_214\n        /* \"#utility.yul\":5678:5679   */\n      0x00\n        /* \"#utility.yul\":5667:5676   */\n      dup4\n        /* \"#utility.yul\":5663:5680   */\n      add\n        /* \"#utility.yul\":5654:5660   */\n      dup7\n        /* \"#utility.yul\":5610:5681   */\n      tag_127\n      jump\t// in\n    tag_214:\n        /* \"#utility.yul\":5691:5763   */\n      tag_215\n        /* \"#utility.yul\":5759:5761   */\n      0x20\n        /* \"#utility.yul\":5748:5757   */\n      dup4\n        /* \"#utility.yul\":5744:5762   */\n      add\n        /* \"#utility.yul\":5735:5741   */\n      dup6\n        /* \"#utility.yul\":5691:5763   */\n      tag_127\n      jump\t// in\n    tag_215:\n        /* \"#utility.yul\":5773:5845   */\n      tag_216\n        /* \"#utility.yul\":5841:5843   */\n      0x40\n        /* \"#utility.yul\":5830:5839   */\n      dup4\n        /* \"#utility.yul\":5826:5844   */\n      add\n        /* \"#utility.yul\":5817:5823   */\n      dup5\n        /* \"#utility.yul\":5773:5845   */\n      tag_136\n      jump\t// in\n    tag_216:\n        /* \"#utility.yul\":5410:5852   */\n      swap5\n      swap4\n      pop\n      pop\n      pop\n      pop\n      jump\t// out\n        /* \"#utility.yul\":5858:5948   */\n    tag_143:\n        /* \"#utility.yul\":5892:5899   */\n      0x00\n        /* \"#utility.yul\":5935:5940   */\n      dup2\n        /* \"#utility.yul\":5928:5941   */\n      iszero\n        /* \"#utility.yul\":5921:5942   */\n      iszero\n        /* \"#utility.yul\":5910:5942   */\n      swap1\n      pop\n        /* \"#utility.yul\":5858:5948   */\n      swap2\n      swap1\n      pop\n      jump\t// out\n        /* \"#utility.yul\":5954:6070   */\n    tag_144:\n        /* \"#utility.yul\":6024:6045   */\n      tag_219\n        /* \"#utility.yul\":6039:6044   */\n      dup2\n        /* \"#utility.yul\":6024:6045   */\n      tag_143\n      jump\t// in\n    tag_219:\n        /* \"#utility.yul\":6017:6022   */\n      dup2\n        /* \"#utility.yul\":6014:6046   */\n      eq\n        /* \"#utility.yul\":6004:6064   */\n      tag_220\n      jumpi\n        /* \"#utility.yul\":6060:6061   */\n      0x00\n        /* \"#utility.yul\":6057:6058   */\n      dup1\n        /* \"#utility.yul\":6050:6062   */\n      revert\n        /* \"#utility.yul\":6004:6064   */\n    tag_220:\n        /* \"#utility.yul\":5954:6070   */\n      pop\n      jump\t// out\n        /* \"#utility.yul\":6076:6213   */\n    tag_145:\n        /* \"#utility.yul\":6130:6135   */\n      0x00\n        /* \"#utility.yul\":6161:6167   */\n      dup2\n        /* \"#utility.yul\":6155:6168   */\n      mload\n        /* \"#utility.yul\":6146:6168   */\n      swap1\n      pop\n        /* \"#utility.yul\":6177:6207   */\n      tag_222\n        /* \"#utility.yul\":6201:6206   */\n      dup2\n        /* \"#utility.yul\":6177:6207   */\n      tag_144\n      jump\t// in\n    tag_222:\n        /* \"#utility.yul\":6076:6213   */\n      swap3\n      swap2\n      pop\n      pop\n      jump\t// out\n        /* \"#utility.yul\":6219:6564   */\n    tag_94:\n        /* \"#utility.yul\":6286:6292   */\n      0x00\n        /* \"#utility.yul\":6335:6337   */\n      0x20\n        /* \"#utility.yul\":6323:6332   */\n      dup3\n        /* \"#utility.yul\":6314:6321   */\n      dup5\n        /* \"#utility.yul\":6310:6333   */\n      sub\n        /* \"#utility.yul\":6306:6338   */\n      slt\n        /* \"#utility.yul\":6303:6422   */\n      iszero\n      tag_224\n      jumpi\n        /* \"#utility.yul\":6341:6420   */\n      tag_225\n      tag_129\n      jump\t// in\n    tag_225:\n        /* \"#utility.yul\":6303:6422   */\n    tag_224:\n        /* \"#utility.yul\":6461:6462   */\n      0x00\n        /* \"#utility.yul\":6486:6547   */\n      tag_226\n        /* \"#utility.yul\":6539:6546   */\n      dup5\n        /* \"#utility.yul\":6530:6536   */\n      dup3\n        /* \"#utility.yul\":6519:6528   */\n      dup6\n        /* \"#utility.yul\":6515:6537   */\n      add\n        /* \"#utility.yul\":6486:6547   */\n      tag_145\n      jump\t// in\n    tag_226:\n        /* \"#utility.yul\":6476:6547   */\n      swap2\n      pop\n        /* \"#utility.yul\":6432:6557   */\n      pop\n        /* \"#utility.yul\":6219:6564   */\n      swap3\n      swap2\n      pop\n      pop\n      jump\t// out\n        /* \"#utility.yul\":6570:6799   */\n    tag_146:\n        /* \"#utility.yul\":6710:6744   */\n      0x5361666545524332303a204552433230206f7065726174696f6e20646964206e\n        /* \"#utility.yul\":6706:6707   */\n      0x00\n        /* \"#utility.yul\":6698:6704   */\n      dup3\n        /* \"#utility.yul\":6694:6708   */\n      add\n        /* \"#utility.yul\":6687:6745   */\n      mstore\n        /* \"#utility.yul\":6779:6791   */\n      0x6f74207375636365656400000000000000000000000000000000000000000000\n        /* \"#utility.yul\":6774:6776   */\n      0x20\n        /* \"#utility.yul\":6766:6772   */\n      dup3\n        /* \"#utility.yul\":6762:6777   */\n      add\n        /* \"#utility.yul\":6755:6792   */\n      mstore\n        /* \"#utility.yul\":6570:6799   */\n      pop\n      jump\t// out\n        /* \"#utility.yul\":6805:7171   */\n    tag_147:\n        /* \"#utility.yul\":6947:6950   */\n      0x00\n        /* \"#utility.yul\":6968:7035   */\n      tag_229\n        /* \"#utility.yul\":7032:7034   */\n      0x2a\n        /* \"#utility.yul\":7027:7030   */\n      dup4\n        /* \"#utility.yul\":6968:7035   */\n      tag_138\n      jump\t// in\n    tag_229:\n        /* \"#utility.yul\":6961:7035   */\n      swap2\n      pop\n        /* \"#utility.yul\":7044:7137   */\n      tag_230\n        /* \"#utility.yul\":7133:7136   */\n      dup3\n        /* \"#utility.yul\":7044:7137   */\n      tag_146\n      jump\t// in\n    tag_230:\n        /* \"#utility.yul\":7162:7164   */\n      0x40\n        /* \"#utility.yul\":7157:7160   */\n      dup3\n        /* \"#utility.yul\":7153:7165   */\n      add\n        /* \"#utility.yul\":7146:7165   */\n      swap1\n      pop\n        /* \"#utility.yul\":6805:7171   */\n      swap2\n      swap1\n      pop\n      jump\t// out\n        /* \"#utility.yul\":7177:7596   */\n    tag_97:\n        /* \"#utility.yul\":7343:7347   */\n      0x00\n        /* \"#utility.yul\":7381:7383   */\n      0x20\n        /* \"#utility.yul\":7370:7379   */\n      dup3\n        /* \"#utility.yul\":7366:7384   */\n      add\n        /* \"#utility.yul\":7358:7384   */\n      swap1\n      pop\n        /* \"#utility.yul\":7430:7439   */\n      dup2\n        /* \"#utility.yul\":7424:7428   */\n      dup2\n        /* \"#utility.yul\":7420:7440   */\n      sub\n        /* \"#utility.yul\":7416:7417   */\n      0x00\n        /* \"#utility.yul\":7405:7414   */\n      dup4\n        /* \"#utility.yul\":7401:7418   */\n      add\n        /* \"#utility.yul\":7394:7441   */\n      mstore\n        /* \"#utility.yul\":7458:7589   */\n      tag_232\n        /* \"#utility.yul\":7584:7588   */\n      dup2\n        /* \"#utility.yul\":7458:7589   */\n      tag_147\n      jump\t// in\n    tag_232:\n        /* \"#utility.yul\":7450:7589   */\n      swap1\n      pop\n        /* \"#utility.yul\":7177:7596   */\n      swap2\n      swap1\n      pop\n      jump\t// out\n        /* \"#utility.yul\":7602:7827   */\n    tag_148:\n        /* \"#utility.yul\":7742:7776   */\n      0x416464726573733a20696e73756666696369656e742062616c616e636520666f\n        /* \"#utility.yul\":7738:7739   */\n      0x00\n        /* \"#utility.yul\":7730:7736   */\n      dup3\n        /* \"#utility.yul\":7726:7740   */\n      add\n        /* \"#utility.yul\":7719:7777   */\n      mstore\n        /* \"#utility.yul\":7811:7819   */\n      0x722063616c6c0000000000000000000000000000000000000000000000000000\n        /* \"#utility.yul\":7806:7808   */\n      0x20\n        /* \"#utility.yul\":7798:7804   */\n      dup3\n        /* \"#utility.yul\":7794:7809   */\n      add\n        /* \"#utility.yul\":7787:7820   */\n      mstore\n        /* \"#utility.yul\":7602:7827   */\n      pop\n      jump\t// out\n        /* \"#utility.yul\":7833:8199   */\n    tag_149:\n        /* \"#utility.yul\":7975:7978   */\n      0x00\n        /* \"#utility.yul\":7996:8063   */\n      tag_235\n        /* \"#utility.yul\":8060:8062   */\n      0x26\n        /* \"#utility.yul\":8055:8058   */\n      dup4\n        /* \"#utility.yul\":7996:8063   */\n      tag_138\n      jump\t// in\n    tag_235:\n        /* \"#utility.yul\":7989:8063   */\n      swap2\n      pop\n        /* \"#utility.yul\":8072:8165   */\n      tag_236\n        /* \"#utility.yul\":8161:8164   */\n      dup3\n        /* \"#utility.yul\":8072:8165   */\n      tag_148\n      jump\t// in\n    tag_236:\n        /* \"#utility.yul\":8190:8192   */\n      0x40\n        /* \"#utility.yul\":8185:8188   */\n      dup3\n        /* \"#utility.yul\":8181:8193   */\n      add\n        /* \"#utility.yul\":8174:8193   */\n      swap1\n      pop\n        /* \"#utility.yul\":7833:8199   */\n      swap2\n      swap1\n      pop\n      jump\t// out\n        /* \"#utility.yul\":8205:8624   */\n    tag_104:\n        /* \"#utility.yul\":8371:8375   */\n      0x00\n        /* \"#utility.yul\":8409:8411   */\n      0x20\n        /* \"#utility.yul\":8398:8407   */\n      dup3\n        /* \"#utility.yul\":8394:8412   */\n      add\n        /* \"#utility.yul\":8386:8412   */\n      swap1\n      pop\n        /* \"#utility.yul\":8458:8467   */\n      dup2\n        /* \"#utility.yul\":8452:8456   */\n      dup2\n        /* \"#utility.yul\":8448:8468   */\n      sub\n        /* \"#utility.yul\":8444:8445   */\n      0x00\n        /* \"#utility.yul\":8433:8442   */\n      dup4\n        /* \"#utility.yul\":8429:8446   */\n      add\n        /* \"#utility.yul\":8422:8469   */\n      mstore\n        /* \"#utility.yul\":8486:8617   */\n      tag_238\n        /* \"#utility.yul\":8612:8616   */\n      dup2\n        /* \"#utility.yul\":8486:8617   */\n      tag_149\n      jump\t// in\n    tag_238:\n        /* \"#utility.yul\":8478:8617   */\n      swap1\n      pop\n        /* \"#utility.yul\":8205:8624   */\n      swap2\n      swap1\n      pop\n      jump\t// out\n        /* \"#utility.yul\":8630:8809   */\n    tag_150:\n        /* \"#utility.yul\":8770:8801   */\n      0x416464726573733a2063616c6c20746f206e6f6e2d636f6e7472616374000000\n        /* \"#utility.yul\":8766:8767   */\n      0x00\n        /* \"#utility.yul\":8758:8764   */\n      dup3\n        /* \"#utility.yul\":8754:8768   */\n      add\n        /* \"#utility.yul\":8747:8802   */\n      mstore\n        /* \"#utility.yul\":8630:8809   */\n      pop\n      jump\t// out\n        /* \"#utility.yul\":8815:9181   */\n    tag_151:\n        /* \"#utility.yul\":8957:8960   */\n      0x00\n        /* \"#utility.yul\":8978:9045   */\n      tag_241\n        /* \"#utility.yul\":9042:9044   */\n      0x1d\n        /* \"#utility.yul\":9037:9040   */\n      dup4\n        /* \"#utility.yul\":8978:9045   */\n      tag_138\n      jump\t// in\n    tag_241:\n        /* \"#utility.yul\":8971:9045   */\n      swap2\n      pop\n        /* \"#utility.yul\":9054:9147   */\n      tag_242\n        /* \"#utility.yul\":9143:9146   */\n      dup3\n        /* \"#utility.yul\":9054:9147   */\n      tag_150\n      jump\t// in\n    tag_242:\n        /* \"#utility.yul\":9172:9174   */\n      0x20\n        /* \"#utility.yul\":9167:9170   */\n      dup3\n        /* \"#utility.yul\":9163:9175   */\n      add\n        /* \"#utility.yul\":9156:9175   */\n      swap1\n      pop\n        /* \"#utility.yul\":8815:9181   */\n      swap2\n      swap1\n      pop\n      jump\t// out\n        /* \"#utility.yul\":9187:9606   */\n    tag_109:\n        /* \"#utility.yul\":9353:9357   */\n      0x00\n        /* \"#utility.yul\":9391:9393   */\n      0x20\n        /* \"#utility.yul\":9380:9389   */\n      dup3\n        /* \"#utility.yul\":9376:9394   */\n      add\n        /* \"#utility.yul\":9368:9394   */\n      swap1\n      pop\n        /* \"#utility.yul\":9440:9449   */\n      dup2\n        /* \"#utility.yul\":9434:9438   */\n      dup2\n        /* \"#utility.yul\":9430:9450   */\n      sub\n        /* \"#utility.yul\":9426:9427   */\n      0x00\n        /* \"#utility.yul\":9415:9424   */\n      dup4\n        /* \"#utility.yul\":9411:9428   */\n      add\n        /* \"#utility.yul\":9404:9451   */\n      mstore\n        /* \"#utility.yul\":9468:9599   */\n      tag_244\n        /* \"#utility.yul\":9594:9598   */\n      dup2\n        /* \"#utility.yul\":9468:9599   */\n      tag_151\n      jump\t// in\n    tag_244:\n        /* \"#utility.yul\":9460:9599   */\n      swap1\n      pop\n        /* \"#utility.yul\":9187:9606   */\n      swap2\n      swap1\n      pop\n      jump\t// out\n        /* \"#utility.yul\":9612:9710   */\n    tag_152:\n        /* \"#utility.yul\":9663:9669   */\n      0x00\n        /* \"#utility.yul\":9697:9702   */\n      dup2\n        /* \"#utility.yul\":9691:9703   */\n      mload\n        /* \"#utility.yul\":9681:9703   */\n      swap1\n      pop\n        /* \"#utility.yul\":9612:9710   */\n      swap2\n      swap1\n      pop\n      jump\t// out\n        /* \"#utility.yul\":9716:9863   */\n    tag_153:\n        /* \"#utility.yul\":9817:9828   */\n      0x00\n        /* \"#utility.yul\":9854:9857   */\n      dup2\n        /* \"#utility.yul\":9839:9857   */\n      swap1\n      pop\n        /* \"#utility.yul\":9716:9863   */\n      swap3\n      swap2\n      pop\n      pop\n      jump\t// out\n        /* \"#utility.yul\":9869:10176   */\n    tag_154:\n        /* \"#utility.yul\":9937:9938   */\n      0x00\n        /* \"#utility.yul\":9947:10060   */\n    tag_248:\n        /* \"#utility.yul\":9961:9967   */\n      dup4\n        /* \"#utility.yul\":9958:9959   */\n      dup2\n        /* \"#utility.yul\":9955:9968   */\n      lt\n        /* \"#utility.yul\":9947:10060   */\n      iszero\n      tag_250\n      jumpi\n        /* \"#utility.yul\":10046:10047   */\n      dup1\n        /* \"#utility.yul\":10041:10044   */\n      dup3\n        /* \"#utility.yul\":10037:10048   */\n      add\n        /* \"#utility.yul\":10031:10049   */\n      mload\n        /* \"#utility.yul\":10027:10028   */\n      dup2\n        /* \"#utility.yul\":10022:10025   */\n      dup5\n        /* \"#utility.yul\":10018:10029   */\n      add\n        /* \"#utility.yul\":10011:10050   */\n      mstore\n        /* \"#utility.yul\":9983:9985   */\n      0x20\n        /* \"#utility.yul\":9980:9981   */\n      dup2\n        /* \"#utility.yul\":9976:9986   */\n      add\n        /* \"#utility.yul\":9971:9986   */\n      swap1\n      pop\n        /* \"#utility.yul\":9947:10060   */\n      jump(tag_248)\n    tag_250:\n        /* \"#utility.yul\":10078:10084   */\n      dup4\n        /* \"#utility.yul\":10075:10076   */\n      dup2\n        /* \"#utility.yul\":10072:10085   */\n      gt\n        /* \"#utility.yul\":10069:10170   */\n      iszero\n      tag_251\n      jumpi\n        /* \"#utility.yul\":10158:10159   */\n      0x00\n        /* \"#utility.yul\":10149:10155   */\n      dup5\n        /* \"#utility.yul\":10144:10147   */\n      dup5\n        /* \"#utility.yul\":10140:10156   */\n      add\n        /* \"#utility.yul\":10133:10160   */\n      mstore\n        /* \"#utility.yul\":10069:10170   */\n    tag_251:\n        /* \"#utility.yul\":9918:10176   */\n      pop\n        /* \"#utility.yul\":9869:10176   */\n      pop\n      pop\n      pop\n      jump\t// out\n        /* \"#utility.yul\":10182:10555   */\n    tag_155:\n        /* \"#utility.yul\":10286:10289   */\n      0x00\n        /* \"#utility.yul\":10314:10352   */\n      tag_253\n        /* \"#utility.yul\":10346:10351   */\n      dup3\n        /* \"#utility.yul\":10314:10352   */\n      tag_152\n      jump\t// in\n    tag_253:\n        /* \"#utility.yul\":10368:10456   */\n      tag_254\n        /* \"#utility.yul\":10449:10455   */\n      dup2\n        /* \"#utility.yul\":10444:10447   */\n      dup6\n        /* \"#utility.yul\":10368:10456   */\n      tag_153\n      jump\t// in\n    tag_254:\n        /* \"#utility.yul\":10361:10456   */\n      swap4\n      pop\n        /* \"#utility.yul\":10465:10517   */\n      tag_255\n        /* \"#utility.yul\":10510:10516   */\n      dup2\n        /* \"#utility.yul\":10505:10508   */\n      dup6\n        /* \"#utility.yul\":10498:10502   */\n      0x20\n        /* \"#utility.yul\":10491:10496   */\n      dup7\n        /* \"#utility.yul\":10487:10503   */\n      add\n        /* \"#utility.yul\":10465:10517   */\n      tag_154\n      jump\t// in\n    tag_255:\n        /* \"#utility.yul\":10542:10548   */\n      dup1\n        /* \"#utility.yul\":10537:10540   */\n      dup5\n        /* \"#utility.yul\":10533:10549   */\n      add\n        /* \"#utility.yul\":10526:10549   */\n      swap2\n      pop\n        /* \"#utility.yul\":10290:10555   */\n      pop\n        /* \"#utility.yul\":10182:10555   */\n      swap3\n      swap2\n      pop\n      pop\n      jump\t// out\n        /* \"#utility.yul\":10561:10832   */\n    tag_111:\n        /* \"#utility.yul\":10691:10694   */\n      0x00\n        /* \"#utility.yul\":10713:10806   */\n      tag_257\n        /* \"#utility.yul\":10802:10805   */\n      dup3\n        /* \"#utility.yul\":10793:10799   */\n      dup5\n        /* \"#utility.yul\":10713:10806   */\n      tag_155\n      jump\t// in\n    tag_257:\n        /* \"#utility.yul\":10706:10806   */\n      swap2\n      pop\n        /* \"#utility.yul\":10823:10826   */\n      dup2\n        /* \"#utility.yul\":10816:10826   */\n      swap1\n      pop\n        /* \"#utility.yul\":10561:10832   */\n      swap3\n      swap2\n      pop\n      pop\n      jump\t// out\n        /* \"#utility.yul\":10838:10937   */\n    tag_156:\n        /* \"#utility.yul\":10890:10896   */\n      0x00\n        /* \"#utility.yul\":10924:10929   */\n      dup2\n        /* \"#utility.yul\":10918:10930   */\n      mload\n        /* \"#utility.yul\":10908:10930   */\n      swap1\n      pop\n        /* \"#utility.yul\":10838:10937   */\n      swap2\n      swap1\n      pop\n      jump\t// out\n        /* \"#utility.yul\":10943:11045   */\n    tag_157:\n        /* \"#utility.yul\":10984:10990   */\n      0x00\n        /* \"#utility.yul\":11035:11037   */\n      0x1f\n        /* \"#utility.yul\":11031:11038   */\n      not\n        /* \"#utility.yul\":11026:11028   */\n      0x1f\n        /* \"#utility.yul\":11019:11024   */\n      dup4\n        /* \"#utility.yul\":11015:11029   */\n      add\n        /* \"#utility.yul\":11011:11039   */\n      and\n        /* \"#utility.yul\":11001:11039   */\n      swap1\n      pop\n        /* \"#utility.yul\":10943:11045   */\n      swap2\n      swap1\n      pop\n      jump\t// out\n        /* \"#utility.yul\":11051:11415   */\n    tag_158:\n        /* \"#utility.yul\":11139:11142   */\n      0x00\n        /* \"#utility.yul\":11167:11206   */\n      tag_261\n        /* \"#utility.yul\":11200:11205   */\n      dup3\n        /* \"#utility.yul\":11167:11206   */\n      tag_156\n      jump\t// in\n    tag_261:\n        /* \"#utility.yul\":11222:11293   */\n      tag_262\n        /* \"#utility.yul\":11286:11292   */\n      dup2\n        /* \"#utility.yul\":11281:11284   */\n      dup6\n        /* \"#utility.yul\":11222:11293   */\n      tag_138\n      jump\t// in\n    tag_262:\n        /* \"#utility.yul\":11215:11293   */\n      swap4\n      pop\n        /* \"#utility.yul\":11302:11354   */\n      tag_263\n        /* \"#utility.yul\":11347:11353   */\n      dup2\n        /* \"#utility.yul\":11342:11345   */\n      dup6\n        /* \"#utility.yul\":11335:11339   */\n      0x20\n        /* \"#utility.yul\":11328:11333   */\n      dup7\n        /* \"#utility.yul\":11324:11340   */\n      add\n        /* \"#utility.yul\":11302:11354   */\n      tag_154\n      jump\t// in\n    tag_263:\n        /* \"#utility.yul\":11379:11408   */\n      tag_264\n        /* \"#utility.yul\":11401:11407   */\n      dup2\n        /* \"#utility.yul\":11379:11408   */\n      tag_157\n      jump\t// in\n    tag_264:\n        /* \"#utility.yul\":11374:11377   */\n      dup5\n        /* \"#utility.yul\":11370:11409   */\n      add\n        /* \"#utility.yul\":11363:11409   */\n      swap2\n      pop\n        /* \"#utility.yul\":11143:11415   */\n      pop\n        /* \"#utility.yul\":11051:11415   */\n      swap3\n      swap2\n      pop\n      pop\n      jump\t// out\n        /* \"#utility.yul\":11421:11734   */\n    tag_124:\n        /* \"#utility.yul\":11534:11538   */\n      0x00\n        /* \"#utility.yul\":11572:11574   */\n      0x20\n        /* \"#utility.yul\":11561:11570   */\n      dup3\n        /* \"#utility.yul\":11557:11575   */\n      add\n        /* \"#utility.yul\":11549:11575   */\n      swap1\n      pop\n        /* \"#utility.yul\":11621:11630   */\n      dup2\n        /* \"#utility.yul\":11615:11619   */\n      dup2\n        /* \"#utility.yul\":11611:11631   */\n      sub\n        /* \"#utility.yul\":11607:11608   */\n      0x00\n        /* \"#utility.yul\":11596:11605   */\n      dup4\n        /* \"#utility.yul\":11592:11609   */\n      add\n        /* \"#utility.yul\":11585:11632   */\n      mstore\n        /* \"#utility.yul\":11649:11727   */\n      tag_266\n        /* \"#utility.yul\":11722:11726   */\n      dup2\n        /* \"#utility.yul\":11713:11719   */\n      dup5\n        /* \"#utility.yul\":11649:11727   */\n      tag_158\n      jump\t// in\n    tag_266:\n        /* \"#utility.yul\":11641:11727   */\n      swap1\n      pop\n        /* \"#utility.yul\":11421:11734   */\n      swap3\n      swap2\n      pop\n      pop\n      jump\t// out\n\n    auxdata: 0xa26469706673582212206d88cfd34fdef5608ec83e1317b8d871984173958ac3c78c7dcb739afb5b245364736f6c634300080e0033\n}\n",
				"bytecode": {
					"linkReferences": {},
					"object": "608060405234801561001057600080fd5b5061002d61002261003260201b60201c565b61003a60201b60201c565b6100fe565b600033905090565b60008060009054906101000a900473ffffffffffffffffffffffffffffffffffffffff169050816000806101000a81548173ffffffffffffffffffffffffffffffffffffffff021916908373ffffffffffffffffffffffffffffffffffffffff1602179055508173ffffffffffffffffffffffffffffffffffffffff168173ffffffffffffffffffffffffffffffffffffffff167f8be0079c531659141344cd1fd0a4f28419497f9722a3daafe3b4186f6b6457e060405160405180910390a35050565b610f838061010d6000396000f3fe60806040526004361061007b5760003560e01c8063715018a61161004e578063715018a61461012f5780638da5cb5b14610146578063c17846dc14610171578063f2fde38b1461019a5761007b565b80630cdd4234146100805780631591b66c146100ab5780634a7d2eaa146100d65780635f515226146100f2575b600080fd5b34801561008c57600080fd5b506100956101c3565b6040516100a291906109af565b60405180910390f35b3480156100b757600080fd5b506100c06101e9565b6040516100cd91906109af565b60405180910390f35b6100f060048036038101906100eb9190610a31565b61020f565b005b3480156100fe57600080fd5b5061011960048036038101906101149190610a71565b61028a565b6040516101269190610aad565b60405180910390f35b34801561013b57600080fd5b50610144610334565b005b34801561015257600080fd5b5061015b6103bc565b60405161016891906109af565b60405180910390f35b34801561017d57600080fd5b5061019860048036038101906101939190610a71565b6103e5565b005b3480156101a657600080fd5b506101c160048036038101906101bc9190610a71565b6104a5565b005b600260009054906101000a900473ffffffffffffffffffffffffffffffffffffffff1681565b600160009054906101000a900473ffffffffffffffffffffffffffffffffffffffff1681565b6000600160009054906101000a900473ffffffffffffffffffffffffffffffffffffffff169050610285600260009054906101000a900473ffffffffffffffffffffffffffffffffffffffff1684848473ffffffffffffffffffffffffffffffffffffffff1661059c909392919063ffffffff16565b505050565b600080600160009054906101000a900473ffffffffffffffffffffffffffffffffffffffff1690508073ffffffffffffffffffffffffffffffffffffffff166370a08231846040518263ffffffff1660e01b81526004016102eb91906109af565b602060405180830381865afa158015610308573d6000803e3d6000fd5b505050506040513d601f19601f8201168201806040525081019061032c9190610add565b915050919050565b61033c610625565b73ffffffffffffffffffffffffffffffffffffffff1661035a6103bc565b73ffffffffffffffffffffffffffffffffffffffff16146103b0576040517f08c379a00000000000000000000000000000000000000000000000000000000081526004016103a790610b67565b60405180910390fd5b6103ba600061062d565b565b60008060009054906101000a900473ffffffffffffffffffffffffffffffffffffffff16905090565b6103ed610625565b73ffffffffffffffffffffffffffffffffffffffff1661040b6103bc565b73ffffffffffffffffffffffffffffffffffffffff1614610461576040517f08c379a000000000000000000000000000000000000000000000000000000000815260040161045890610b67565b60405180910390fd5b80600160006101000a81548173ffffffffffffffffffffffffffffffffffffffff021916908373ffffffffffffffffffffffffffffffffffffffff16021790555050565b6104ad610625565b73ffffffffffffffffffffffffffffffffffffffff166104cb6103bc565b73ffffffffffffffffffffffffffffffffffffffff1614610521576040517f08c379a000000000000000000000000000000000000000000000000000000000815260040161051890610b67565b60405180910390fd5b600073ffffffffffffffffffffffffffffffffffffffff168173ffffffffffffffffffffffffffffffffffffffff1603610590576040517f08c379a000000000000000000000000000000000000000000000000000000000815260040161058790610bf9565b60405180910390fd5b6105998161062d565b50565b61061f846323b872dd60e01b8585856040516024016105bd93929190610c19565b604051602081830303815290604052907bffffffffffffffffffffffffffffffffffffffffffffffffffffffff19166020820180517bffffffffffffffffffffffffffffffffffffffffffffffffffffffff83818316178352505050506106f1565b50505050565b600033905090565b60008060009054906101000a900473ffffffffffffffffffffffffffffffffffffffff169050816000806101000a81548173ffffffffffffffffffffffffffffffffffffffff021916908373ffffffffffffffffffffffffffffffffffffffff1602179055508173ffffffffffffffffffffffffffffffffffffffff168173ffffffffffffffffffffffffffffffffffffffff167f8be0079c531659141344cd1fd0a4f28419497f9722a3daafe3b4186f6b6457e060405160405180910390a35050565b6000610753826040518060400160405280602081526020017f5361666545524332303a206c6f772d6c6576656c2063616c6c206661696c65648152508573ffffffffffffffffffffffffffffffffffffffff166107b89092919063ffffffff16565b90506000815111156107b357808060200190518101906107739190610c88565b6107b2576040517f08c379a00000000000000000000000000000000000000000000000000000000081526004016107a990610d27565b60405180910390fd5b5b505050565b60606107c784846000856107d0565b90509392505050565b606082471015610815576040517f08c379a000000000000000000000000000000000000000000000000000000000815260040161080c90610db9565b60405180910390fd5b61081e856108e4565b61085d576040517f08c379a000000000000000000000000000000000000000000000000000000000815260040161085490610e25565b60405180910390fd5b6000808673ffffffffffffffffffffffffffffffffffffffff1685876040516108869190610ebf565b60006040518083038185875af1925050503d80600081146108c3576040519150601f19603f3d011682016040523d82523d6000602084013e6108c8565b606091505b50915091506108d8828286610907565b92505050949350505050565b6000808273ffffffffffffffffffffffffffffffffffffffff163b119050919050565b6060831561091757829050610967565b60008351111561092a5782518084602001fd5b816040517f08c379a000000000000000000000000000000000000000000000000000000000815260040161095e9190610f2b565b60405180910390fd5b9392505050565b600073ffffffffffffffffffffffffffffffffffffffff82169050919050565b60006109998261096e565b9050919050565b6109a98161098e565b82525050565b60006020820190506109c460008301846109a0565b92915050565b600080fd5b6109d88161098e565b81146109e357600080fd5b50565b6000813590506109f5816109cf565b92915050565b6000819050919050565b610a0e816109fb565b8114610a1957600080fd5b50565b600081359050610a2b81610a05565b92915050565b60008060408385031215610a4857610a476109ca565b5b6000610a56858286016109e6565b9250506020610a6785828601610a1c565b9150509250929050565b600060208284031215610a8757610a866109ca565b5b6000610a95848285016109e6565b91505092915050565b610aa7816109fb565b82525050565b6000602082019050610ac26000830184610a9e565b92915050565b600081519050610ad781610a05565b92915050565b600060208284031215610af357610af26109ca565b5b6000610b0184828501610ac8565b91505092915050565b600082825260208201905092915050565b7f4f776e61626c653a2063616c6c6572206973206e6f7420746865206f776e6572600082015250565b6000610b51602083610b0a565b9150610b5c82610b1b565b602082019050919050565b60006020820190508181036000830152610b8081610b44565b9050919050565b7f4f776e61626c653a206e6577206f776e657220697320746865207a65726f206160008201527f6464726573730000000000000000000000000000000000000000000000000000602082015250565b6000610be3602683610b0a565b9150610bee82610b87565b604082019050919050565b60006020820190508181036000830152610c1281610bd6565b9050919050565b6000606082019050610c2e60008301866109a0565b610c3b60208301856109a0565b610c486040830184610a9e565b949350505050565b60008115159050919050565b610c6581610c50565b8114610c7057600080fd5b50565b600081519050610c8281610c5c565b92915050565b600060208284031215610c9e57610c9d6109ca565b5b6000610cac84828501610c73565b91505092915050565b7f5361666545524332303a204552433230206f7065726174696f6e20646964206e60008201527f6f74207375636365656400000000000000000000000000000000000000000000602082015250565b6000610d11602a83610b0a565b9150610d1c82610cb5565b604082019050919050565b60006020820190508181036000830152610d4081610d04565b9050919050565b7f416464726573733a20696e73756666696369656e742062616c616e636520666f60008201527f722063616c6c0000000000000000000000000000000000000000000000000000602082015250565b6000610da3602683610b0a565b9150610dae82610d47565b604082019050919050565b60006020820190508181036000830152610dd281610d96565b9050919050565b7f416464726573733a2063616c6c20746f206e6f6e2d636f6e7472616374000000600082015250565b6000610e0f601d83610b0a565b9150610e1a82610dd9565b602082019050919050565b60006020820190508181036000830152610e3e81610e02565b9050919050565b600081519050919050565b600081905092915050565b60005b83811015610e79578082015181840152602081019050610e5e565b83811115610e88576000848401525b50505050565b6000610e9982610e45565b610ea38185610e50565b9350610eb3818560208601610e5b565b80840191505092915050565b6000610ecb8284610e8e565b915081905092915050565b600081519050919050565b6000601f19601f8301169050919050565b6000610efd82610ed6565b610f078185610b0a565b9350610f17818560208601610e5b565b610f2081610ee1565b840191505092915050565b60006020820190508181036000830152610f458184610ef2565b90509291505056fea26469706673582212206d88cfd34fdef5608ec83e1317b8d871984173958ac3c78c7dcb739afb5b245364736f6c634300080e0033",
					"opcodes": "PUSH1 0x80 PUSH1 0x40 MSTORE CALLVALUE DUP1 ISZERO PUSH2 0x10 JUMPI PUSH1 0x0 DUP1 REVERT JUMPDEST POP PUSH2 0x2D PUSH2 0x22 PUSH2 0x32 PUSH1 0x20 SHL PUSH1 0x20 SHR JUMP JUMPDEST PUSH2 0x3A PUSH1 0x20 SHL PUSH1 0x20 SHR JUMP JUMPDEST PUSH2 0xFE JUMP JUMPDEST PUSH1 0x0 CALLER SWAP1 POP SWAP1 JUMP JUMPDEST PUSH1 0x0 DUP1 PUSH1 0x0 SWAP1 SLOAD SWAP1 PUSH2 0x100 EXP SWAP1 DIV PUSH20 0xFFFFFFFFFFFFFFFFFFFFFFFFFFFFFFFFFFFFFFFF AND SWAP1 POP DUP2 PUSH1 0x0 DUP1 PUSH2 0x100 EXP DUP2 SLOAD DUP2 PUSH20 0xFFFFFFFFFFFFFFFFFFFFFFFFFFFFFFFFFFFFFFFF MUL NOT AND SWAP1 DUP4 PUSH20 0xFFFFFFFFFFFFFFFFFFFFFFFFFFFFFFFFFFFFFFFF AND MUL OR SWAP1 SSTORE POP DUP2 PUSH20 0xFFFFFFFFFFFFFFFFFFFFFFFFFFFFFFFFFFFFFFFF AND DUP2 PUSH20 0xFFFFFFFFFFFFFFFFFFFFFFFFFFFFFFFFFFFFFFFF AND PUSH32 0x8BE0079C531659141344CD1FD0A4F28419497F9722A3DAAFE3B4186F6B6457E0 PUSH1 0x40 MLOAD PUSH1 0x40 MLOAD DUP1 SWAP2 SUB SWAP1 LOG3 POP POP JUMP JUMPDEST PUSH2 0xF83 DUP1 PUSH2 0x10D PUSH1 0x0 CODECOPY PUSH1 0x0 RETURN INVALID PUSH1 0x80 PUSH1 0x40 MSTORE PUSH1 0x4 CALLDATASIZE LT PUSH2 0x7B JUMPI PUSH1 0x0 CALLDATALOAD PUSH1 0xE0 SHR DUP1 PUSH4 0x715018A6 GT PUSH2 0x4E JUMPI DUP1 PUSH4 0x715018A6 EQ PUSH2 0x12F JUMPI DUP1 PUSH4 0x8DA5CB5B EQ PUSH2 0x146 JUMPI DUP1 PUSH4 0xC17846DC EQ PUSH2 0x171 JUMPI DUP1 PUSH4 0xF2FDE38B EQ PUSH2 0x19A JUMPI PUSH2 0x7B JUMP JUMPDEST DUP1 PUSH4 0xCDD4234 EQ PUSH2 0x80 JUMPI DUP1 PUSH4 0x1591B66C EQ PUSH2 0xAB JUMPI DUP1 PUSH4 0x4A7D2EAA EQ PUSH2 0xD6 JUMPI DUP1 PUSH4 0x5F515226 EQ PUSH2 0xF2 JUMPI JUMPDEST PUSH1 0x0 DUP1 REVERT JUMPDEST CALLVALUE DUP1 ISZERO PUSH2 0x8C JUMPI PUSH1 0x0 DUP1 REVERT JUMPDEST POP PUSH2 0x95 PUSH2 0x1C3 JUMP JUMPDEST PUSH1 0x40 MLOAD PUSH2 0xA2 SWAP2 SWAP1 PUSH2 0x9AF JUMP JUMPDEST PUSH1 0x40 MLOAD DUP1 SWAP2 SUB SWAP1 RETURN JUMPDEST CALLVALUE DUP1 ISZERO PUSH2 0xB7 JUMPI PUSH1 0x0 DUP1 REVERT JUMPDEST POP PUSH2 0xC0 PUSH2 0x1E9 JUMP JUMPDEST PUSH1 0x40 MLOAD PUSH2 0xCD SWAP2 SWAP1 PUSH2 0x9AF JUMP JUMPDEST PUSH1 0x40 MLOAD DUP1 SWAP2 SUB SWAP1 RETURN JUMPDEST PUSH2 0xF0 PUSH1 0x4 DUP1 CALLDATASIZE SUB DUP2 ADD SWAP1 PUSH2 0xEB SWAP2 SWAP1 PUSH2 0xA31 JUMP JUMPDEST PUSH2 0x20F JUMP JUMPDEST STOP JUMPDEST CALLVALUE DUP1 ISZERO PUSH2 0xFE JUMPI PUSH1 0x0 DUP1 REVERT JUMPDEST POP PUSH2 0x119 PUSH1 0x4 DUP1 CALLDATASIZE SUB DUP2 ADD SWAP1 PUSH2 0x114 SWAP2 SWAP1 PUSH2 0xA71 JUMP JUMPDEST PUSH2 0x28A JUMP JUMPDEST PUSH1 0x40 MLOAD PUSH2 0x126 SWAP2 SWAP1 PUSH2 0xAAD JUMP JUMPDEST PUSH1 0x40 MLOAD DUP1 SWAP2 SUB SWAP1 RETURN JUMPDEST CALLVALUE DUP1 ISZERO PUSH2 0x13B JUMPI PUSH1 0x0 DUP1 REVERT JUMPDEST POP PUSH2 0x144 PUSH2 0x334 JUMP JUMPDEST STOP JUMPDEST CALLVALUE DUP1 ISZERO PUSH2 0x152 JUMPI PUSH1 0x0 DUP1 REVERT JUMPDEST POP PUSH2 0x15B PUSH2 0x3BC JUMP JUMPDEST PUSH1 0x40 MLOAD PUSH2 0x168 SWAP2 SWAP1 PUSH2 0x9AF JUMP JUMPDEST PUSH1 0x40 MLOAD DUP1 SWAP2 SUB SWAP1 RETURN JUMPDEST CALLVALUE DUP1 ISZERO PUSH2 0x17D JUMPI PUSH1 0x0 DUP1 REVERT JUMPDEST POP PUSH2 0x198 PUSH1 0x4 DUP1 CALLDATASIZE SUB DUP2 ADD SWAP1 PUSH2 0x193 SWAP2 SWAP1 PUSH2 0xA71 JUMP JUMPDEST PUSH2 0x3E5 JUMP JUMPDEST STOP JUMPDEST CALLVALUE DUP1 ISZERO PUSH2 0x1A6 JUMPI PUSH1 0x0 DUP1 REVERT JUMPDEST POP PUSH2 0x1C1 PUSH1 0x4 DUP1 CALLDATASIZE SUB DUP2 ADD SWAP1 PUSH2 0x1BC SWAP2 SWAP1 PUSH2 0xA71 JUMP JUMPDEST PUSH2 0x4A5 JUMP JUMPDEST STOP JUMPDEST PUSH1 0x2 PUSH1 0x0 SWAP1 SLOAD SWAP1 PUSH2 0x100 EXP SWAP1 DIV PUSH20 0xFFFFFFFFFFFFFFFFFFFFFFFFFFFFFFFFFFFFFFFF AND DUP2 JUMP JUMPDEST PUSH1 0x1 PUSH1 0x0 SWAP1 SLOAD SWAP1 PUSH2 0x100 EXP SWAP1 DIV PUSH20 0xFFFFFFFFFFFFFFFFFFFFFFFFFFFFFFFFFFFFFFFF AND DUP2 JUMP JUMPDEST PUSH1 0x0 PUSH1 0x1 PUSH1 0x0 SWAP1 SLOAD SWAP1 PUSH2 0x100 EXP SWAP1 DIV PUSH20 0xFFFFFFFFFFFFFFFFFFFFFFFFFFFFFFFFFFFFFFFF AND SWAP1 POP PUSH2 0x285 PUSH1 0x2 PUSH1 0x0 SWAP1 SLOAD SWAP1 PUSH2 0x100 EXP SWAP1 DIV PUSH20 0xFFFFFFFFFFFFFFFFFFFFFFFFFFFFFFFFFFFFFFFF AND DUP5 DUP5 DUP5 PUSH20 0xFFFFFFFFFFFFFFFFFFFFFFFFFFFFFFFFFFFFFFFF AND PUSH2 0x59C SWAP1 SWAP4 SWAP3 SWAP2 SWAP1 PUSH4 0xFFFFFFFF AND JUMP JUMPDEST POP POP POP JUMP JUMPDEST PUSH1 0x0 DUP1 PUSH1 0x1 PUSH1 0x0 SWAP1 SLOAD SWAP1 PUSH2 0x100 EXP SWAP1 DIV PUSH20 0xFFFFFFFFFFFFFFFFFFFFFFFFFFFFFFFFFFFFFFFF AND SWAP1 POP DUP1 PUSH20 0xFFFFFFFFFFFFFFFFFFFFFFFFFFFFFFFFFFFFFFFF AND PUSH4 0x70A08231 DUP5 PUSH1 0x40 MLOAD DUP3 PUSH4 0xFFFFFFFF AND PUSH1 0xE0 SHL DUP2 MSTORE PUSH1 0x4 ADD PUSH2 0x2EB SWAP2 SWAP1 PUSH2 0x9AF JUMP JUMPDEST PUSH1 0x20 PUSH1 0x40 MLOAD DUP1 DUP4 SUB DUP2 DUP7 GAS STATICCALL ISZERO DUP1 ISZERO PUSH2 0x308 JUMPI RETURNDATASIZE PUSH1 0x0 DUP1 RETURNDATACOPY RETURNDATASIZE PUSH1 0x0 REVERT JUMPDEST POP POP POP POP PUSH1 0x40 MLOAD RETURNDATASIZE PUSH1 0x1F NOT PUSH1 0x1F DUP3 ADD AND DUP3 ADD DUP1 PUSH1 0x40 MSTORE POP DUP2 ADD SWAP1 PUSH2 0x32C SWAP2 SWAP1 PUSH2 0xADD JUMP JUMPDEST SWAP2 POP POP SWAP2 SWAP1 POP JUMP JUMPDEST PUSH2 0x33C PUSH2 0x625 JUMP JUMPDEST PUSH20 0xFFFFFFFFFFFFFFFFFFFFFFFFFFFFFFFFFFFFFFFF AND PUSH2 0x35A PUSH2 0x3BC JUMP JUMPDEST PUSH20 0xFFFFFFFFFFFFFFFFFFFFFFFFFFFFFFFFFFFFFFFF AND EQ PUSH2 0x3B0 JUMPI PUSH1 0x40 MLOAD PUSH32 0x8C379A000000000000000000000000000000000000000000000000000000000 DUP2 MSTORE PUSH1 0x4 ADD PUSH2 0x3A7 SWAP1 PUSH2 0xB67 JUMP JUMPDEST PUSH1 0x40 MLOAD DUP1 SWAP2 SUB SWAP1 REVERT JUMPDEST PUSH2 0x3BA PUSH1 0x0 PUSH2 0x62D JUMP JUMPDEST JUMP JUMPDEST PUSH1 0x0 DUP1 PUSH1 0x0 SWAP1 SLOAD SWAP1 PUSH2 0x100 EXP SWAP1 DIV PUSH20 0xFFFFFFFFFFFFFFFFFFFFFFFFFFFFFFFFFFFFFFFF AND SWAP1 POP SWAP1 JUMP JUMPDEST PUSH2 0x3ED PUSH2 0x625 JUMP JUMPDEST PUSH20 0xFFFFFFFFFFFFFFFFFFFFFFFFFFFFFFFFFFFFFFFF AND PUSH2 0x40B PUSH2 0x3BC JUMP JUMPDEST PUSH20 0xFFFFFFFFFFFFFFFFFFFFFFFFFFFFFFFFFFFFFFFF AND EQ PUSH2 0x461 JUMPI PUSH1 0x40 MLOAD PUSH32 0x8C379A000000000000000000000000000000000000000000000000000000000 DUP2 MSTORE PUSH1 0x4 ADD PUSH2 0x458 SWAP1 PUSH2 0xB67 JUMP JUMPDEST PUSH1 0x40 MLOAD DUP1 SWAP2 SUB SWAP1 REVERT JUMPDEST DUP1 PUSH1 0x1 PUSH1 0x0 PUSH2 0x100 EXP DUP2 SLOAD DUP2 PUSH20 0xFFFFFFFFFFFFFFFFFFFFFFFFFFFFFFFFFFFFFFFF MUL NOT AND SWAP1 DUP4 PUSH20 0xFFFFFFFFFFFFFFFFFFFFFFFFFFFFFFFFFFFFFFFF AND MUL OR SWAP1 SSTORE POP POP JUMP JUMPDEST PUSH2 0x4AD PUSH2 0x625 JUMP JUMPDEST PUSH20 0xFFFFFFFFFFFFFFFFFFFFFFFFFFFFFFFFFFFFFFFF AND PUSH2 0x4CB PUSH2 0x3BC JUMP JUMPDEST PUSH20 0xFFFFFFFFFFFFFFFFFFFFFFFFFFFFFFFFFFFFFFFF AND EQ PUSH2 0x521 JUMPI PUSH1 0x40 MLOAD PUSH32 0x8C379A000000000000000000000000000000000000000000000000000000000 DUP2 MSTORE PUSH1 0x4 ADD PUSH2 0x518 SWAP1 PUSH2 0xB67 JUMP JUMPDEST PUSH1 0x40 MLOAD DUP1 SWAP2 SUB SWAP1 REVERT JUMPDEST PUSH1 0x0 PUSH20 0xFFFFFFFFFFFFFFFFFFFFFFFFFFFFFFFFFFFFFFFF AND DUP2 PUSH20 0xFFFFFFFFFFFFFFFFFFFFFFFFFFFFFFFFFFFFFFFF AND SUB PUSH2 0x590 JUMPI PUSH1 0x40 MLOAD PUSH32 0x8C379A000000000000000000000000000000000000000000000000000000000 DUP2 MSTORE PUSH1 0x4 ADD PUSH2 0x587 SWAP1 PUSH2 0xBF9 JUMP JUMPDEST PUSH1 0x40 MLOAD DUP1 SWAP2 SUB SWAP1 REVERT JUMPDEST PUSH2 0x599 DUP2 PUSH2 0x62D JUMP JUMPDEST POP JUMP JUMPDEST PUSH2 0x61F DUP5 PUSH4 0x23B872DD PUSH1 0xE0 SHL DUP6 DUP6 DUP6 PUSH1 0x40 MLOAD PUSH1 0x24 ADD PUSH2 0x5BD SWAP4 SWAP3 SWAP2 SWAP1 PUSH2 0xC19 JUMP JUMPDEST PUSH1 0x40 MLOAD PUSH1 0x20 DUP2 DUP4 SUB SUB DUP2 MSTORE SWAP1 PUSH1 0x40 MSTORE SWAP1 PUSH28 0xFFFFFFFFFFFFFFFFFFFFFFFFFFFFFFFFFFFFFFFFFFFFFFFFFFFFFFFF NOT AND PUSH1 0x20 DUP3 ADD DUP1 MLOAD PUSH28 0xFFFFFFFFFFFFFFFFFFFFFFFFFFFFFFFFFFFFFFFFFFFFFFFFFFFFFFFF DUP4 DUP2 DUP4 AND OR DUP4 MSTORE POP POP POP POP PUSH2 0x6F1 JUMP JUMPDEST POP POP POP POP JUMP JUMPDEST PUSH1 0x0 CALLER SWAP1 POP SWAP1 JUMP JUMPDEST PUSH1 0x0 DUP1 PUSH1 0x0 SWAP1 SLOAD SWAP1 PUSH2 0x100 EXP SWAP1 DIV PUSH20 0xFFFFFFFFFFFFFFFFFFFFFFFFFFFFFFFFFFFFFFFF AND SWAP1 POP DUP2 PUSH1 0x0 DUP1 PUSH2 0x100 EXP DUP2 SLOAD DUP2 PUSH20 0xFFFFFFFFFFFFFFFFFFFFFFFFFFFFFFFFFFFFFFFF MUL NOT AND SWAP1 DUP4 PUSH20 0xFFFFFFFFFFFFFFFFFFFFFFFFFFFFFFFFFFFFFFFF AND MUL OR SWAP1 SSTORE POP DUP2 PUSH20 0xFFFFFFFFFFFFFFFFFFFFFFFFFFFFFFFFFFFFFFFF AND DUP2 PUSH20 0xFFFFFFFFFFFFFFFFFFFFFFFFFFFFFFFFFFFFFFFF AND PUSH32 0x8BE0079C531659141344CD1FD0A4F28419497F9722A3DAAFE3B4186F6B6457E0 PUSH1 0x40 MLOAD PUSH1 0x40 MLOAD DUP1 SWAP2 SUB SWAP1 LOG3 POP POP JUMP JUMPDEST PUSH1 0x0 PUSH2 0x753 DUP3 PUSH1 0x40 MLOAD DUP1 PUSH1 0x40 ADD PUSH1 0x40 MSTORE DUP1 PUSH1 0x20 DUP2 MSTORE PUSH1 0x20 ADD PUSH32 0x5361666545524332303A206C6F772D6C6576656C2063616C6C206661696C6564 DUP2 MSTORE POP DUP6 PUSH20 0xFFFFFFFFFFFFFFFFFFFFFFFFFFFFFFFFFFFFFFFF AND PUSH2 0x7B8 SWAP1 SWAP3 SWAP2 SWAP1 PUSH4 0xFFFFFFFF AND JUMP JUMPDEST SWAP1 POP PUSH1 0x0 DUP2 MLOAD GT ISZERO PUSH2 0x7B3 JUMPI DUP1 DUP1 PUSH1 0x20 ADD SWAP1 MLOAD DUP2 ADD SWAP1 PUSH2 0x773 SWAP2 SWAP1 PUSH2 0xC88 JUMP JUMPDEST PUSH2 0x7B2 JUMPI PUSH1 0x40 MLOAD PUSH32 0x8C379A000000000000000000000000000000000000000000000000000000000 DUP2 MSTORE PUSH1 0x4 ADD PUSH2 0x7A9 SWAP1 PUSH2 0xD27 JUMP JUMPDEST PUSH1 0x40 MLOAD DUP1 SWAP2 SUB SWAP1 REVERT JUMPDEST JUMPDEST POP POP POP JUMP JUMPDEST PUSH1 0x60 PUSH2 0x7C7 DUP5 DUP5 PUSH1 0x0 DUP6 PUSH2 0x7D0 JUMP JUMPDEST SWAP1 POP SWAP4 SWAP3 POP POP POP JUMP JUMPDEST PUSH1 0x60 DUP3 SELFBALANCE LT ISZERO PUSH2 0x815 JUMPI PUSH1 0x40 MLOAD PUSH32 0x8C379A000000000000000000000000000000000000000000000000000000000 DUP2 MSTORE PUSH1 0x4 ADD PUSH2 0x80C SWAP1 PUSH2 0xDB9 JUMP JUMPDEST PUSH1 0x40 MLOAD DUP1 SWAP2 SUB SWAP1 REVERT JUMPDEST PUSH2 0x81E DUP6 PUSH2 0x8E4 JUMP JUMPDEST PUSH2 0x85D JUMPI PUSH1 0x40 MLOAD PUSH32 0x8C379A000000000000000000000000000000000000000000000000000000000 DUP2 MSTORE PUSH1 0x4 ADD PUSH2 0x854 SWAP1 PUSH2 0xE25 JUMP JUMPDEST PUSH1 0x40 MLOAD DUP1 SWAP2 SUB SWAP1 REVERT JUMPDEST PUSH1 0x0 DUP1 DUP7 PUSH20 0xFFFFFFFFFFFFFFFFFFFFFFFFFFFFFFFFFFFFFFFF AND DUP6 DUP8 PUSH1 0x40 MLOAD PUSH2 0x886 SWAP2 SWAP1 PUSH2 0xEBF JUMP JUMPDEST PUSH1 0x0 PUSH1 0x40 MLOAD DUP1 DUP4 SUB DUP2 DUP6 DUP8 GAS CALL SWAP3 POP POP POP RETURNDATASIZE DUP1 PUSH1 0x0 DUP2 EQ PUSH2 0x8C3 JUMPI PUSH1 0x40 MLOAD SWAP2 POP PUSH1 0x1F NOT PUSH1 0x3F RETURNDATASIZE ADD AND DUP3 ADD PUSH1 0x40 MSTORE RETURNDATASIZE DUP3 MSTORE RETURNDATASIZE PUSH1 0x0 PUSH1 0x20 DUP5 ADD RETURNDATACOPY PUSH2 0x8C8 JUMP JUMPDEST PUSH1 0x60 SWAP2 POP JUMPDEST POP SWAP2 POP SWAP2 POP PUSH2 0x8D8 DUP3 DUP3 DUP7 PUSH2 0x907 JUMP JUMPDEST SWAP3 POP POP POP SWAP5 SWAP4 POP POP POP POP JUMP JUMPDEST PUSH1 0x0 DUP1 DUP3 PUSH20 0xFFFFFFFFFFFFFFFFFFFFFFFFFFFFFFFFFFFFFFFF AND EXTCODESIZE GT SWAP1 POP SWAP2 SWAP1 POP JUMP JUMPDEST PUSH1 0x60 DUP4 ISZERO PUSH2 0x917 JUMPI DUP3 SWAP1 POP PUSH2 0x967 JUMP JUMPDEST PUSH1 0x0 DUP4 MLOAD GT ISZERO PUSH2 0x92A JUMPI DUP3 MLOAD DUP1 DUP5 PUSH1 0x20 ADD REVERT JUMPDEST DUP2 PUSH1 0x40 MLOAD PUSH32 0x8C379A000000000000000000000000000000000000000000000000000000000 DUP2 MSTORE PUSH1 0x4 ADD PUSH2 0x95E SWAP2 SWAP1 PUSH2 0xF2B JUMP JUMPDEST PUSH1 0x40 MLOAD DUP1 SWAP2 SUB SWAP1 REVERT JUMPDEST SWAP4 SWAP3 POP POP POP JUMP JUMPDEST PUSH1 0x0 PUSH20 0xFFFFFFFFFFFFFFFFFFFFFFFFFFFFFFFFFFFFFFFF DUP3 AND SWAP1 POP SWAP2 SWAP1 POP JUMP JUMPDEST PUSH1 0x0 PUSH2 0x999 DUP3 PUSH2 0x96E JUMP JUMPDEST SWAP1 POP SWAP2 SWAP1 POP JUMP JUMPDEST PUSH2 0x9A9 DUP2 PUSH2 0x98E JUMP JUMPDEST DUP3 MSTORE POP POP JUMP JUMPDEST PUSH1 0x0 PUSH1 0x20 DUP3 ADD SWAP1 POP PUSH2 0x9C4 PUSH1 0x0 DUP4 ADD DUP5 PUSH2 0x9A0 JUMP JUMPDEST SWAP3 SWAP2 POP POP JUMP JUMPDEST PUSH1 0x0 DUP1 REVERT JUMPDEST PUSH2 0x9D8 DUP2 PUSH2 0x98E JUMP JUMPDEST DUP2 EQ PUSH2 0x9E3 JUMPI PUSH1 0x0 DUP1 REVERT JUMPDEST POP JUMP JUMPDEST PUSH1 0x0 DUP2 CALLDATALOAD SWAP1 POP PUSH2 0x9F5 DUP2 PUSH2 0x9CF JUMP JUMPDEST SWAP3 SWAP2 POP POP JUMP JUMPDEST PUSH1 0x0 DUP2 SWAP1 POP SWAP2 SWAP1 POP JUMP JUMPDEST PUSH2 0xA0E DUP2 PUSH2 0x9FB JUMP JUMPDEST DUP2 EQ PUSH2 0xA19 JUMPI PUSH1 0x0 DUP1 REVERT JUMPDEST POP JUMP JUMPDEST PUSH1 0x0 DUP2 CALLDATALOAD SWAP1 POP PUSH2 0xA2B DUP2 PUSH2 0xA05 JUMP JUMPDEST SWAP3 SWAP2 POP POP JUMP JUMPDEST PUSH1 0x0 DUP1 PUSH1 0x40 DUP4 DUP6 SUB SLT ISZERO PUSH2 0xA48 JUMPI PUSH2 0xA47 PUSH2 0x9CA JUMP JUMPDEST JUMPDEST PUSH1 0x0 PUSH2 0xA56 DUP6 DUP3 DUP7 ADD PUSH2 0x9E6 JUMP JUMPDEST SWAP3 POP POP PUSH1 0x20 PUSH2 0xA67 DUP6 DUP3 DUP7 ADD PUSH2 0xA1C JUMP JUMPDEST SWAP2 POP POP SWAP3 POP SWAP3 SWAP1 POP JUMP JUMPDEST PUSH1 0x0 PUSH1 0x20 DUP3 DUP5 SUB SLT ISZERO PUSH2 0xA87 JUMPI PUSH2 0xA86 PUSH2 0x9CA JUMP JUMPDEST JUMPDEST PUSH1 0x0 PUSH2 0xA95 DUP5 DUP3 DUP6 ADD PUSH2 0x9E6 JUMP JUMPDEST SWAP2 POP POP SWAP3 SWAP2 POP POP JUMP JUMPDEST PUSH2 0xAA7 DUP2 PUSH2 0x9FB JUMP JUMPDEST DUP3 MSTORE POP POP JUMP JUMPDEST PUSH1 0x0 PUSH1 0x20 DUP3 ADD SWAP1 POP PUSH2 0xAC2 PUSH1 0x0 DUP4 ADD DUP5 PUSH2 0xA9E JUMP JUMPDEST SWAP3 SWAP2 POP POP JUMP JUMPDEST PUSH1 0x0 DUP2 MLOAD SWAP1 POP PUSH2 0xAD7 DUP2 PUSH2 0xA05 JUMP JUMPDEST SWAP3 SWAP2 POP POP JUMP JUMPDEST PUSH1 0x0 PUSH1 0x20 DUP3 DUP5 SUB SLT ISZERO PUSH2 0xAF3 JUMPI PUSH2 0xAF2 PUSH2 0x9CA JUMP JUMPDEST JUMPDEST PUSH1 0x0 PUSH2 0xB01 DUP5 DUP3 DUP6 ADD PUSH2 0xAC8 JUMP JUMPDEST SWAP2 POP POP SWAP3 SWAP2 POP POP JUMP JUMPDEST PUSH1 0x0 DUP3 DUP3 MSTORE PUSH1 0x20 DUP3 ADD SWAP1 POP SWAP3 SWAP2 POP POP JUMP JUMPDEST PUSH32 0x4F776E61626C653A2063616C6C6572206973206E6F7420746865206F776E6572 PUSH1 0x0 DUP3 ADD MSTORE POP JUMP JUMPDEST PUSH1 0x0 PUSH2 0xB51 PUSH1 0x20 DUP4 PUSH2 0xB0A JUMP JUMPDEST SWAP2 POP PUSH2 0xB5C DUP3 PUSH2 0xB1B JUMP JUMPDEST PUSH1 0x20 DUP3 ADD SWAP1 POP SWAP2 SWAP1 POP JUMP JUMPDEST PUSH1 0x0 PUSH1 0x20 DUP3 ADD SWAP1 POP DUP2 DUP2 SUB PUSH1 0x0 DUP4 ADD MSTORE PUSH2 0xB80 DUP2 PUSH2 0xB44 JUMP JUMPDEST SWAP1 POP SWAP2 SWAP1 POP JUMP JUMPDEST PUSH32 0x4F776E61626C653A206E6577206F776E657220697320746865207A65726F2061 PUSH1 0x0 DUP3 ADD MSTORE PUSH32 0x6464726573730000000000000000000000000000000000000000000000000000 PUSH1 0x20 DUP3 ADD MSTORE POP JUMP JUMPDEST PUSH1 0x0 PUSH2 0xBE3 PUSH1 0x26 DUP4 PUSH2 0xB0A JUMP JUMPDEST SWAP2 POP PUSH2 0xBEE DUP3 PUSH2 0xB87 JUMP JUMPDEST PUSH1 0x40 DUP3 ADD SWAP1 POP SWAP2 SWAP1 POP JUMP JUMPDEST PUSH1 0x0 PUSH1 0x20 DUP3 ADD SWAP1 POP DUP2 DUP2 SUB PUSH1 0x0 DUP4 ADD MSTORE PUSH2 0xC12 DUP2 PUSH2 0xBD6 JUMP JUMPDEST SWAP1 POP SWAP2 SWAP1 POP JUMP JUMPDEST PUSH1 0x0 PUSH1 0x60 DUP3 ADD SWAP1 POP PUSH2 0xC2E PUSH1 0x0 DUP4 ADD DUP7 PUSH2 0x9A0 JUMP JUMPDEST PUSH2 0xC3B PUSH1 0x20 DUP4 ADD DUP6 PUSH2 0x9A0 JUMP JUMPDEST PUSH2 0xC48 PUSH1 0x40 DUP4 ADD DUP5 PUSH2 0xA9E JUMP JUMPDEST SWAP5 SWAP4 POP POP POP POP JUMP JUMPDEST PUSH1 0x0 DUP2 ISZERO ISZERO SWAP1 POP SWAP2 SWAP1 POP JUMP JUMPDEST PUSH2 0xC65 DUP2 PUSH2 0xC50 JUMP JUMPDEST DUP2 EQ PUSH2 0xC70 JUMPI PUSH1 0x0 DUP1 REVERT JUMPDEST POP JUMP JUMPDEST PUSH1 0x0 DUP2 MLOAD SWAP1 POP PUSH2 0xC82 DUP2 PUSH2 0xC5C JUMP JUMPDEST SWAP3 SWAP2 POP POP JUMP JUMPDEST PUSH1 0x0 PUSH1 0x20 DUP3 DUP5 SUB SLT ISZERO PUSH2 0xC9E JUMPI PUSH2 0xC9D PUSH2 0x9CA JUMP JUMPDEST JUMPDEST PUSH1 0x0 PUSH2 0xCAC DUP5 DUP3 DUP6 ADD PUSH2 0xC73 JUMP JUMPDEST SWAP2 POP POP SWAP3 SWAP2 POP POP JUMP JUMPDEST PUSH32 0x5361666545524332303A204552433230206F7065726174696F6E20646964206E PUSH1 0x0 DUP3 ADD MSTORE PUSH32 0x6F74207375636365656400000000000000000000000000000000000000000000 PUSH1 0x20 DUP3 ADD MSTORE POP JUMP JUMPDEST PUSH1 0x0 PUSH2 0xD11 PUSH1 0x2A DUP4 PUSH2 0xB0A JUMP JUMPDEST SWAP2 POP PUSH2 0xD1C DUP3 PUSH2 0xCB5 JUMP JUMPDEST PUSH1 0x40 DUP3 ADD SWAP1 POP SWAP2 SWAP1 POP JUMP JUMPDEST PUSH1 0x0 PUSH1 0x20 DUP3 ADD SWAP1 POP DUP2 DUP2 SUB PUSH1 0x0 DUP4 ADD MSTORE PUSH2 0xD40 DUP2 PUSH2 0xD04 JUMP JUMPDEST SWAP1 POP SWAP2 SWAP1 POP JUMP JUMPDEST PUSH32 0x416464726573733A20696E73756666696369656E742062616C616E636520666F PUSH1 0x0 DUP3 ADD MSTORE PUSH32 0x722063616C6C0000000000000000000000000000000000000000000000000000 PUSH1 0x20 DUP3 ADD MSTORE POP JUMP JUMPDEST PUSH1 0x0 PUSH2 0xDA3 PUSH1 0x26 DUP4 PUSH2 0xB0A JUMP JUMPDEST SWAP2 POP PUSH2 0xDAE DUP3 PUSH2 0xD47 JUMP JUMPDEST PUSH1 0x40 DUP3 ADD SWAP1 POP SWAP2 SWAP1 POP JUMP JUMPDEST PUSH1 0x0 PUSH1 0x20 DUP3 ADD SWAP1 POP DUP2 DUP2 SUB PUSH1 0x0 DUP4 ADD MSTORE PUSH2 0xDD2 DUP2 PUSH2 0xD96 JUMP JUMPDEST SWAP1 POP SWAP2 SWAP1 POP JUMP JUMPDEST PUSH32 0x416464726573733A2063616C6C20746F206E6F6E2D636F6E7472616374000000 PUSH1 0x0 DUP3 ADD MSTORE POP JUMP JUMPDEST PUSH1 0x0 PUSH2 0xE0F PUSH1 0x1D DUP4 PUSH2 0xB0A JUMP JUMPDEST SWAP2 POP PUSH2 0xE1A DUP3 PUSH2 0xDD9 JUMP JUMPDEST PUSH1 0x20 DUP3 ADD SWAP1 POP SWAP2 SWAP1 POP JUMP JUMPDEST PUSH1 0x0 PUSH1 0x20 DUP3 ADD SWAP1 POP DUP2 DUP2 SUB PUSH1 0x0 DUP4 ADD MSTORE PUSH2 0xE3E DUP2 PUSH2 0xE02 JUMP JUMPDEST SWAP1 POP SWAP2 SWAP1 POP JUMP JUMPDEST PUSH1 0x0 DUP2 MLOAD SWAP1 POP SWAP2 SWAP1 POP JUMP JUMPDEST PUSH1 0x0 DUP2 SWAP1 POP SWAP3 SWAP2 POP POP JUMP JUMPDEST PUSH1 0x0 JUMPDEST DUP4 DUP2 LT ISZERO PUSH2 0xE79 JUMPI DUP1 DUP3 ADD MLOAD DUP2 DUP5 ADD MSTORE PUSH1 0x20 DUP2 ADD SWAP1 POP PUSH2 0xE5E JUMP JUMPDEST DUP4 DUP2 GT ISZERO PUSH2 0xE88 JUMPI PUSH1 0x0 DUP5 DUP5 ADD MSTORE JUMPDEST POP POP POP POP JUMP JUMPDEST PUSH1 0x0 PUSH2 0xE99 DUP3 PUSH2 0xE45 JUMP JUMPDEST PUSH2 0xEA3 DUP2 DUP6 PUSH2 0xE50 JUMP JUMPDEST SWAP4 POP PUSH2 0xEB3 DUP2 DUP6 PUSH1 0x20 DUP7 ADD PUSH2 0xE5B JUMP JUMPDEST DUP1 DUP5 ADD SWAP2 POP POP SWAP3 SWAP2 POP POP JUMP JUMPDEST PUSH1 0x0 PUSH2 0xECB DUP3 DUP5 PUSH2 0xE8E JUMP JUMPDEST SWAP2 POP DUP2 SWAP1 POP SWAP3 SWAP2 POP POP JUMP JUMPDEST PUSH1 0x0 DUP2 MLOAD SWAP1 POP SWAP2 SWAP1 POP JUMP JUMPDEST PUSH1 0x0 PUSH1 0x1F NOT PUSH1 0x1F DUP4 ADD AND SWAP1 POP SWAP2 SWAP1 POP JUMP JUMPDEST PUSH1 0x0 PUSH2 0xEFD DUP3 PUSH2 0xED6 JUMP JUMPDEST PUSH2 0xF07 DUP2 DUP6 PUSH2 0xB0A JUMP JUMPDEST SWAP4 POP PUSH2 0xF17 DUP2 DUP6 PUSH1 0x20 DUP7 ADD PUSH2 0xE5B JUMP JUMPDEST PUSH2 0xF20 DUP2 PUSH2 0xEE1 JUMP JUMPDEST DUP5 ADD SWAP2 POP POP SWAP3 SWAP2 POP POP JUMP JUMPDEST PUSH1 0x0 PUSH1 0x20 DUP3 ADD SWAP1 POP DUP2 DUP2 SUB PUSH1 0x0 DUP4 ADD MSTORE PUSH2 0xF45 DUP2 DUP5 PUSH2 0xEF2 JUMP JUMPDEST SWAP1 POP SWAP3 SWAP2 POP POP JUMP INVALID LOG2 PUSH5 0x6970667358 0x22 SLT KECCAK256 PUSH14 0x88CFD34FDEF5608EC83E1317B8D8 PUSH18 0x984173958AC3C78C7DCB739AFB5B24536473 PUSH16 0x6C634300080E00330000000000000000 "
				},
				"gasEstimates": {
					"creation": {
						"codeDepositCost": "794200",
						"executionCost": "infinite",
						"totalCost": "infinite"
					},
					"external": {
						"checkBalance(address)": "infinite",
						"magicAddress()": "2537",
						"mainAddress()": "2515",
						"owner()": "2544",
						"renounceOwnership()": "30374",
						"safeMagicTransfer(address,uint256)": "infinite",
						"setMagicAddress(address)": "27006",
						"transferOwnership(address)": "30786"
					}
				},
				"methodIdentifiers": {
					"checkBalance(address)": "5f515226",
					"magicAddress()": "1591b66c",
					"mainAddress()": "0cdd4234",
					"owner()": "8da5cb5b",
					"renounceOwnership()": "715018a6",
					"safeMagicTransfer(address,uint256)": "4a7d2eaa",
					"setMagicAddress(address)": "c17846dc",
					"transferOwnership(address)": "f2fde38b"
				}
			},
			"storageLayout": {
				"storage": [
					{
						"astId": 7,
						"contract": "Magic20.sol:Magic20",
						"label": "_owner",
						"offset": 0,
						"slot": "0",
						"type": "t_address"
					},
					{
						"astId": 736,
						"contract": "Magic20.sol:Magic20",
						"label": "magicAddress",
						"offset": 0,
						"slot": "1",
						"type": "t_address"
					},
					{
						"astId": 738,
						"contract": "Magic20.sol:Magic20",
						"label": "mainAddress",
						"offset": 0,
						"slot": "2",
						"type": "t_address"
					}
				],
				"types": {
					"t_address": {
						"encoding": "inplace",
						"label": "address",
						"numberOfBytes": "20"
					}
				}
			},
			"userdoc": {
				"kind": "user",
				"methods": {},
				"version": 1
			}
		}
	}
}